:020000040800F2
:1000000088200024AD02000819C00008B1B0000823
:10001000F9B80008D91B0008C9ED0008000000006D
:10002000000000000000000000000000B9C300084C
:10003000114300080000000059C00008F1C3000887
:10004000C7020008C7020008C7020008C70200086C
:10005000C7020008A1C20008C7020008C7020008C2
:10006000C7020008C7020008C7020008E1350008FF
:10007000C7020008C7020008C7020008C70200083C
:10008000F1350008C7020008C91B0008C7020008B4
:10009000C7020008C7020008C7020008C70200081C
:1000A000C7020008C7020008C7020008C70200080C
:1000B000C7020008C7020008C7020008C7020008FC
:1000C000C7020008C7020008C7020008C7020008EC
:1000D000C7020008B9ED0008C7020008C1ED00081A
:1000E000C7020008C702000800000000C70200089D
:1000F000C7020008C7020008C7020008C7020008BC
:10010000C7020008C7020008C7020008C7020008AB
:10011000C7020008C7020008C7020008C70200089B
:10012000C7020008C7020008C7020008C70200088B
:10013000C7020008C7020008C7020008C70200087B
:1001400000000000000000000000000000000000AF
:10015000C7020008C7020008C7020008C70200085B
:10016000C7020008C7020008C7020008C70200084B
:10017000C7020008C7020008C7020008000000000C
:10018000C7020008C7020008C7020008C70200082B
:10019000C7020008C7020008C7020008C70200081B
:1001A000C7020008C7020008C7020008C70200080B
:1001B000C7020008C7020008C7020008C7020008FB
:1001C000C7020008C7020008C7020008C7020008EB
:1001D000C7020008C7020008C7020008C7020008DB
:1001E000C7020008C7020008C7020008C7020008CB
:1001F000C7020008C7020008C7020008C7020008BB
:10020000C7020008C7020008C7020008C7020008AA
:10021000C7020008C7020008C7020008C70200089A
:10022000C7020008C7020008C7020008000000005B
:10023000C7020008C702000800000000C70200084B
:10024000C7020008C7020008C7020008C70200086A
:10025000C7020008C7020008C7020008C70200085A
:10026000C7020008C7020008C7020008C70200084A
:10027000C7020008C7020008C7020008000000000B
:10028000C7020008C7020008C702000800000000FB
:1002900000000000C7020008DFF80CD000F0D0FC1E
:1002A00000480047B9EE000888200024064880472F
:1002B00006480047FEE7FEE7FEE7FEE7FEE7FEE74B
:1002C000FEE7FEE7FEE7FEE701C500089902000829
:1002D00070B582601D460170C9000446184600F0E2
:1002E00080F9656070BD2DE9F0012DED088B944615
:1002F0004668856807784FEA131895ED000AD5ED32
:10030000010A95ED021AD5ED031A404695ED042A2F
:10031000D6ED002A96ED013A143500287DD0D1EDB6
:10032000003A91ED014AD1ED027AB0EE626A00EE38
:10033000236A91ED038A00EEA33AD1ED048A61EEBF
:10034000239AD1ED056A01EE863A91ED069A42EEC6
:10035000069AD1ED072A00EE043AD1ED085A40EE94
:10036000849AD1ED093A21EE047A91ED0A4A41EEE0
:10037000839AD1ED0B4A02EE037A91ED0C5A40EECE
:10038000279A91ED0DBA00EEA77AD1ED0EAA61EE93
:10039000277A91ED0FAA01EEA97A403142EE297A2F
:1003A00000EE087A40EE887A21EE088A41EE877ADC
:1003B00002EE078A40EE287A00EEA88A61EE288ACB
:1003C00001EEA78A42EE278A00EE268A40EEA68A30
:1003D00061EE266A41EE888A42EE086A40EE098A9A
:1003E00040EE896A21EE099A41EEA86A02EE289A47
:1003F00040EE226A00EEA29A61EE222A01EEA69A4F
:1004000042EE262A00EE259A40EEA52A61EE255AF4
:1004100041EE892A42EE095A00E06BE040EE232AC1
:1004200040EEA35A61EE233A41EEA25A42EE223A3E
:1004300040EE045A40EE843A21EE044A41EEA53AD9
:1004400002EE254A40EE243A00EEA44A61EE244A28
:1004500001EEA34A42EE234A00EE054A40EE854AE9
:1004600021EE055A8CED006A41EE844A8CED013A8A
:1004700002EE045ACCED029A40EE0B4A8CED037A60
:1004800000EE8B5ACCED047A21EE0B6A8CED058AD6
:1004900001EEA45ACCED068A02EE246ACCED076A7E
:1004A0008CED089A00EE2A5ACCED092A00EEAA6AD1
:1004B000CCED0A5A61EE2A2ACCED0B3A01EE856AA0
:1004C0008CED0C4A42EE052ACCED0D4A00EE0A6A8C
:1004D0008CED0E5A40EE8A2A8CED0F6A21EE0A3A14
:1004E000401E41EE862A0CF1400C02EE063A00282E
:1004F0007FF415AF03F00F04CCB191ED004AF0EE9C
:10050000623A40EE043A091DF0EE432A40EE842A96
:10051000CCED003A21EE044A0CF1040C41EEA32A82
:10052000641EB0EE443A02EE233A002CE5D1C6ED4B
:10053000002A86ED013A7F1E083611468C46002FB0
:100540007FF4DBAEBDEC088BBDE8F00170472DE910
:10055000F05F0546002092469B4688460646814647
:1005600040241BE0284641464746224600F05DF9FC
:1005700053465A46C01A914110D311461846224696
:1005800000F044F92D1A67EB01084F46224601207E
:10059000002100F03BF917EB00094E41201EA4F1A9
:1005A0000104DFDC484631462A464346BDE8F09F59
:1005B00040EA01039B0703D009E008C9121F08C0E5
:1005C000042AFAD203E011F8013B00F8013B521E65
:1005D000F9D27047D2B201E000F8012B491EFBD2DC
:1005E00070470022F6E710B513460A46044619463E
:1005F000FFF7F0FF204610BD421C10F8011B002938
:10060000FBD1801A704710B5002200E0521C835CB9
:100610008C5CA34201D1002BF8D1D8B2E1B2401AD0
:1006200010BD30B504460020034600E05B1C934239
:1006300003D2E05CCD5C401BF8D030BD30B5054640
:100640000020034600E05B1C934205D2EC5CC85CD2
:10065000201A01D1002CF6D130BD00000FB400B536
:100660008DB010A909900B9000914FF0FF300A90C7
:1006700000200C9005480690054807906A4609A896
:100680000F9900F0F7F80DB05DF814FB9108000821
:10069000AF0800082DE9FF5F1D464FF0FF3BD5E98D
:1006A000014691465F464FF00008A9697F1C0198FA
:1006B0008847296A824688470028F6D1BAF1FF3F69
:1006C0000CD024F4C064002E19DD600614D5BAF1F4
:1006D0002B0F09D0BAF12D0F0ED103E0584604B00C
:1006E000BDE8F09F44F48064A9697F1C01988847A5
:1006F000761E8246002E02DDBAF1300F03D0B9F12A
:10070000000F26D032E0A969761E44F400747F1CE5
:10071000019888478246002E05DDBAF1780F06D091
:10072000BAF1580F03D0B9F1000F10D01EE0B9F1A3
:10073000000F02D0B9F1100F18D1A969761E24F468
:1007400000747F1C019888478246102002E0082030
:1007500000E00A20814609E008FB0908A969761E25
:1007600044F400747F1C019888478246002E05DD02
:100770004946504600F069F80028EDDAE969019829
:100780008847A00502D46FF00100A8E7E00725D153
:10079000600613D5600502D5C8F1000000E04046B0
:1007A00029680A1D2A600968220501D5087015E02C
:1007B000220701D5088011E008600FE02868011DBC
:1007C00029600068210502D580F8008006E0210735
:1007D00002D5A0F8008001E0C0F8008038467EE72E
:1007E00030B50B46014600202022012409E021FA01
:1007F00002F59D4205D303FA02F5491B04FA02F5FE
:100800002844151EA2F10102F1DC30BD202A04DBD0
:10081000203A00FA02F1002070479140C2F1200313
:1008200020FA03F3194390407047202A04DB203A52
:1008300021FA02F00021704721FA02F3D040C2F100
:10084000200291400843194670473A2800D23038B8
:1008500020F02002412A01D3A2F13700884201D3BF
:100860004FF0FF30704700000268114413780160B8
:1008700018467047D1600449516104491162002152
:100880001161114600F006BA69080008890C0008D9
:10089000426842B1016811F8013B23B1521EC0E920
:1008A0000012184670470121C160881E70474268D7
:1008B0005AB1C368016843B983688B4205D0491EA9
:1008C000521CC0E90012002070474FF0FF30704703
:1008D0002DE9FE4F804681EA0300C00F0C460090D0
:1008E00021F0004123F00045B8EB0200A94105D2F8
:1008F0004046214690461C460B46024623F00040E7
:10090000104347D0270DC7F30A00C3F30A510290E2
:10091000401A019040286BDAC3F3130040F4801BA7
:100920000098924620B10023D2EB030A63EB0B0B35
:1009300001985946C0F140025046FFF767FF06464E
:100940000D4650465946019A00F08CF910EB08000C
:100950006141002487EA115284EAE7731A4340D0C8
:10096000009A62B3019A012A4FEA075215DC001B74
:1009700061EB02014FF0004202EA0752CDE900426A
:10098000001C41F5801132462B4600F028FB03B0D5
:10099000BDE8F08F40462146F9E7001B61EB0201FC
:1009A000001C41F5801300185B412018A2F50017C8
:1009B00047EB030140EAD570B6196D4111E06D08AF
:1009C0004FEA360645EAC0754FEA0752001B61EB55
:1009D0000201001C41F5801149084FEA300000195E
:1009E000514132462B4603B0BDE8F04F00F0E8BA63
:1009F0000098012240000023D0EB020263EBE07379
:100A0000009821464FEAE074B8EB000061EB040166
:100A1000E9E783F000435BE781F0004158E72DE907
:100A2000FE4F81EA030404F0004421F000410094E9
:100A30004FF0000B23F0004350EA01045ED052EA6D
:100A400003045BD0C3F30A54C1F30A552C44A4F247
:100A5000F3340194A0FB0254C1F3130141F480115B
:100A6000C3F3130343F4801301FB024400FB034E62
:100A7000840A970A44EA815447EA8357A4FB07682B
:100A800002958D0A05FB07854FEA932C04FB0C5455
:100A90002705029D4FEA065847EA1637B5EB0805C9
:100AA0006EEB070C870E920E47EA811742EA83121B
:100AB000A7FB0201B6EB0B0164EB00042B0D43EA2C
:100AC0000C335E1844EB1C50DA465146E7FB02013A
:100AD000C5F313044FEA0B3343EA14534FEA0432CD
:100AE000019C43EA0603A4F10C040294009CCDE9A6
:100AF00000B400F074FA03B0BDE8F08F00200146A6
:100B0000F9E72DE9F04D81EA030404F0004B21F0F0
:100B1000004514464FF0000A23F0004150EA050258
:100B200020D054EA01021DD0C5F30A570246C5F38E
:100B30001303C1F31300C1F30A5640F4801543F4C4
:100B40008013A7EB0608101BD64608F2FD3873EB9E
:100B5000050002D308F1010801E092185B41B8F1E9
:100B6000000F03DA00200146BDE8F08D00204FF4AD
:100B70008011064684460EE0171B73EB050705D36C
:100B8000121B63EB050306434CEA010C49084FEACC
:100B9000300092185B4150EA0107EDD152EA0300A0
:100BA00012D082EA040083EA0501084305D0101B35
:100BB000AB4106D20122002306E000224FF00043A1
:100BC00002E06FF0010253101AEB06004CEB0851E3
:100BD00010EB0A0041EB0B01BDE8F04D00F0F0B95D
:100BE000C1F30A52C1F3130140F2FF3341F4801103
:100BF0009A4202DA00200146704740F233439A429B
:100C0000A2F2334202DC5242FFF70FBEFFF7FEBDF5
:100C100030B5041E71F1000404DB4FF00044404283
:100C200064EB0101141E73F1000405DB1C464FF058
:100C30000043524263EB0403994208BF904230BD27
:100C4000064C074D06E0E06840F0010394E8070019
:100C500098471034AC42F6D3FFF722FBB0290108C5
:100C6000D0290108202A06DBCB17203A41FA02F0EE
:100C700043EAE07306E041FA02F3D040C2F12002F9
:100C80009140084319467047C0B24FF4F05100F04C
:100C9000F5B900002DE9F34F8BB04FF0000801F1DA
:100CA0000C000C464FF0010B46460DF1080A01906E
:100CB0006269012101989047051E2DD0252D2CD069
:100CC000216A8847C0B16269012101989047216A71
:100CD00088470028F7D1411E62690198904700E0DB
:100CE000761CA1690B988847216A88470028F7D1AC
:100CF000E1690B988847DBE7A1690B9888470746AD
:100D0000A84201D1761CD3E7E1690B9888477F1C84
:100D100002D1B8F1000F6FD046E1002762693D466D
:100D20003946019890472A2804D162690121019827
:100D300090470125DFF8849262690121019890476C
:100D4000A0F130010A290AD24F45E5DC07EB870103
:100D500000EB4107303FDFD445F01005ECE7E90632
:100D600001D46FF000476C280AD04C2814D06828B2
:100D700015D06A280DD074281CD07A281AD01DE00E
:100D800062690121019890476C2802D045F0040562
:100D900014E045F002050DE045F020050AE0626927
:100DA000012101989047682802D045F0080505E028
:100DB00045F400656269012101989047C4E9015733
:100DC00065283DD019DC58287AD00CDC452837D06E
:100DD00004DC252826D0412831D131E046282FD007
:100DE00047282CD12CE05B2877D0612828D06328B5
:100DF0007CD0642823D15AE0D0E06F2848D008DCAA
:100E000066281DD067281BD0692821D06E2816D1EE
:100E100027E0702845D0732868D0752847D07828F7
:100E20000DD14DE0A1690B988847054625283FF470
:100E300069AFE1690B9888476D1C3FF46AAFB3E076
:100E400023466A466FF001000B99AFF300809EE0E5
:100E500045F040006060A80723464FF0000236D4FA
:100E60003EE0E8077FF447AF2068011D216000687D
:100E7000290501D506701BE7290701D5068017E76C
:100E8000A90703D5F117C0E9006111E706600FE774
:100E900045F040006060A80723464FF0080216D4D2
:100EA0001EE040F60E0125EA0100606016E045F004
:100EB00040006060A80723464FF00A0207D40FE005
:100EC00045F040006060A80708D5234610226FF067
:100ED00001000B99AFF3008059E007E02346102290
:100EE0006FF001000B99FFF7D5FB50E04FF00009C0
:100EF0004F464B46632802D05B2806D040E0E80608
:100F000001D40120A06001273AE062690121019823
:100F100090475E2805D14FF0010962694946019862
:100F20009047216939B900210A46534643F82120E8
:100F3000491C0829FADBB0B3216969B9C11700EB74
:100F4000D16253110AEB830122F01F02821A0120A1
:100F50000B68904003430B60626901210198904740
:100F60005D28E8D1B9F1000F09D00020514651F8B1
:100F70002020D24341F82020401C0828F7DB02AB98
:100F8000224600976FF001000B99AFF30080002814
:100F90000CDA401C08D1BBF1000F05D04FF0FF3038
:100FA0000DB0BDE8F08FFFE74046F9E7E90701D152
:100FB00008F1010806444FF0000B79E6CCCCCC0CCC
:100FC00010B5141E73F1000408DA401C41F1000151
:100FD00092185B411A4301D120F0010010BD2DE9A8
:100FE000F04D92469B4611B1B1FA81F202E0B0FA9F
:100FF00080F220329046FFF709FC04460F4640EA93
:101000000A0041EA0B0153465A46084313D01146E1
:1010100053EA010019D0C8F140025046FFF705FC21
:1010200005460E46504659464246FFF7EFFB084339
:1010300005D0012004E020463946BDE8F08D0020AF
:10104000054346EAE0762C4337430A986305E40AF1
:10105000A0EB08000022FD0A44EA47540A3002D5FA
:1010600000200146E9E7010510196941DDE908455D
:1010700000196941BDE8F04DA2E700007F2801D9C1
:10108000002208E0064A02EB5002C007127800D1A5
:10109000120902F00F020120904008407047000042
:1010A000B00A010800000000042888BF7047102122
:1010B000DFE800F00A0305070900202104E04021D1
:1010C00002E0802100E0F02140F20F02C2F2004273
:1010D000117000200121012300F00EBA0000000071
:1010E00070B540F60044C5F6020420464FF4804136
:1010F000002207F091F904F5806630464FF4007144
:10110000012207F089F904F5C05528464021002244
:1011100007F082F928464FF40071002207F07CF9AD
:1011200020460121002207F077F930468021002275
:1011300007F072F920464FF40041002207F06CF9E5
:1011400020460221002207F067F930464FF48071F3
:10115000002207F061F930464FF48061002207F069
:101160005BF904F5E05420460421002207F054F90D
:1011700028464FF40061002207F04EF92046022174
:101180000022BDE8704007F047B9000000000000F1
:1011900010B541F20004C5F6020420468021002269
:1011A00007F03AF902200DF067FE20468021012267
:1011B00007F032F905200DF05FFE20468021002265
:1011C00007F02AF90220BDE810400DF055BE0000DE
:1011D00010B582B02EA00FF07DFBEFF3108072B639
:1011E000FFF77EFF30A00FF075FB32A00FF072FB0F
:1011F00042F210700DF040FE00F09EF836A00FF0A5
:1012000069FB4CF250300DF037FE00248DF806409B
:10121000D320ADF8040001AA01200321012300F02E
:101220006BF930A00FF056FB42F210700DF024FE67
:101230008DF802404FF44070ADF800006A4603207C
:101240000321012300F058F929A00FF043FB42F2DB
:1012500010700DF011FE00204FF47A7100F0D0F8FC
:1012600026A00FF037FB0020002100F085F826A013
:101270000FF030FB00F020F926A00FF02BFB002030
:10128000FFF712FF62B626A00FF024FB02B010BDDC
:101290004144393935395F496E697420737461721C
:1012A000742E2E2E0D00000020204750494F206F35
:1012B0006B0D00002020536F6674776172652053B8
:1012C00050493A2053434C4B3D504A362C2053440E
:1012D000303D504A390D000020205265736574205E
:1012E0006F6B0D002020465231206F6B0D00000007
:1012F0002020434652206F6B0D00000020204672D4
:101300006571206F6B0D00002020416D70206F6BA8
:101310000D000000202053796E63206F6B0D0000DC
:101320004144393935395F496E697420646F6E659F
:101330002E0D00000000000010B540F60044C5F678
:10134000020420460121002207F066F80A200DF071
:1013500093FD20460121012207F05EF832200DF0B6
:101360008BFD20460121002207F056F86420BDE8DD
:1013700010400DF081BD00009FED1F0AB1F5107FF8
:1013800028BF4FF410719FED1D1A02EE101AB8EE2F
:10139000422A82EE000A20EE010A40F20C01C2F25B
:1013A00000410022BCEEC00A0A7010EE102A8A70BA
:1013B000102343EA12224A70032888BF704780B581
:1013C000C00042F21001C8F2400121FA00F040F2E0
:1013D0000F02C2F20042107000200121002300F031
:1013E0008BF840F20C02C2F20042062003210123D6
:1013F000BDE8804000F080B80000104400C07F4489
:10140000B0B5044646F20055C1F6CD55A94238BFE5
:101410000D4623A021462A460DF0BAFD9FED1E0B76
:1014200001EE105AB8EE411B21EE000BBCEEC00BD2
:1014300010EE100A40F27601C2F20041C870020AB2
:101440008A70020C4A70000E0870042C88BFB0BD70
:101450001020DFE804F00A0305070900202004E05B
:10146000402002E0802000E0F02040F20F02C2F2B3
:101470000042107000200121002300F03DF840F2EE
:101480007602C2F20042042004210123BDE8B040EC
:1014900000F032B800BF00BF95D626E80B2E2140E1
:1014A0005365744672657120434825643D2575482F
:1014B0007A0D0A000000000080B582B01020ADF85F
:1014C00006000020ADF804000DF106020220022102
:1014D000012300F011F80A200DF0CEFC01AA022031
:1014E0000221012300F008F80A200DF0C5FC02B02B
:1014F00080BD0000000000002DE9F04F81B0009396
:1015000093468846824642F20046C5F60206A6F594
:10151000A059002548464FF40071002206F07CFFD8
:1015200002200DF0A9FC0AF07F0700BF30464021E1
:10153000002206F071FF01200DF09EFC78B2B0F1A0
:10154000FF3F30464FF40071CCBF0022012206F06D
:1015500063FF01200DF090FC30464021012206F08F
:101560005BFF02200DF088FC7F000135E8B20828FF
:10157000DCD3B8F1000F2BD0002500BF1BF805709D
:10158000002400BF30464021002206F045FF012024
:101590000DF072FC78B2B0F1FF3F30464FF40071AD
:1015A000CCBF0022012206F037FF01200DF064FCC1
:1015B00030464021012206F02FFF02200DF05CFC96
:1015C0007F000134E0B20828DCD301354545D5D190
:1015D00030464021002206F01FFF01200DF04CFC98
:1015E00048464FF40071012206F016FF02200DF06C
:1015F00043FC009801281CBF01B0BDE8F08F01B08A
:10160000BDE8F04FFFF7C4BD2DE9F04188B01546A5
:101610008846064600240794CDE90544CDE90344F5
:10162000CDE9014440F27C07C2F20047384604F09D
:10163000AFFDFE62012D4FF0000088BF0120F86071
:10164000BD61384604F064FBD0BB0620029040F236
:101650000010C2F2801001900420039040F2FF714C
:10166000CDE9041006948DF81D4040F27C06C2F2CC
:10167000004601A9304603F0AFFF08BB022D0ED390
:101680000C20029048F20000C3F6F060019040F296
:101690007C00C2F2004001A903F09EFF80B940F235
:1016A000E005C2F20045284605F006FBC5F81C809F
:1016B000284606F0D5F8002802BFAE63F564002086
:1016C00008B0BDE8F081000040F68870C2F200402A
:1016D000007870470000000070B50446002804BF81
:1016E000012070BD40F68875C2F2004500202870C8
:1016F00040F27401C2F20041087040F68476C2F2F2
:101700000046306040F27501C2F2004108700320CB
:101710004FF480710122FFF777FF00B170BDBFF376
:101720004F8F002040F20001C3F200014EF65C72C0
:10173000CEF20002431813602030B0F5806FF9D16B
:10174000BFF34F8FBFF36F8F01202870346040F2DA
:101750007C00C2F2004040F20001C3F200014FF4ED
:10176000007204F089FC04460020002C08BF70BD04
:1017700030602870012000210222FFF745FF20463B
:1017800070BD00000000000010B540F68470C2F289
:1017900000400024046040F68870C2F200400470EB
:1017A00040F27C00C2F2004004F0F2FC0120002173
:1017B0000222FFF729FF40F27400C2F200400470D9
:1017C00010BD000000000000B0B50446006840F401
:1017D000807042F20011C4F20201884204D142F248
:1017E0000830C4F2020003E046F20830C5F60200F9
:1017F000006810F4403F10D008F0CAF90546606850
:10180000B0F5803F05D0B0F5403F22D0B0F5003FA5
:1018100020D1000CB5FBF0F51CE04FF400200021B6
:1018200007F00AF905466068A0F580214FEAB1414A
:101830000A290FD8DFE801F0060606060606494B1E
:101840004D4F510047F6FE7101EA5040B5FBF0F5EF
:1018500000E0AD0806F0E8FD41F2030188420DD832
:101860002068816842F60152C0F2311295422CBFC5
:1018700041F4807121F480718160B0BD4BF621404C
:10188000C0F2BE00854205D82068816821F440710D
:101890008160B0BD47F64100C0F27D10854203D89B
:1018A0002068816801220CE0206881684FF2810283
:1018B000C0F2FA22954282BF41F440718160B0BD0E
:1018C000022262F309218160B0BD2D09C2E76D09D2
:1018D000C0E7AD09BEE7ED09BCE72D0ABAE7000095
:1018E00070B50D460446006809F04EFC06462068B7
:1018F00009F01AFC304360D02068C16811F0007F05
:1019000005D0617D012904BF217D012903D0022D6D
:1019100016D1022524E0016811F0400F0DD14FF0DF
:10192000FF314DF60042C0F20C0200BF013191427E
:1019300039D2036813F0400FF8D04021016001252F
:1019400009F022FC18B1206809F00EFC18B1012D35
:1019500006D1042616E0206809F04EFC012DF8D0CF
:10196000206809F0E1FB30B1206809F0FDFB10B9F7
:10197000206809F0E5FB0426022D08BF0826032D88
:1019800008BF0C2606F058FD054600BF2068806899
:10199000304212D006F050FD401B0628F6D32068D6
:1019A00080683042F2D0606D40F010006065A06D3C
:1019B00040F00100A065012070BD002070BD000056
:1019C00010B5846B626D616D12F0500F06D0C906C0
:1019D0001DD4E16CC96CBDE81040084741F40070AB
:1019E00060652068016811F0080F15D1C06810F01B
:1019F000030F25D1606D20F480706065606D10F478
:101A0000805F02BF606D40F00100606518E0204615
:101A1000BDE8104004F000B809F0BEFB80B12068BA
:101A2000C06810F4005F0BD1606D20F480706065B9
:101A3000606D10F4805F02BF606D40F00100606572
:101A40002046BDE8104003F06FBF0000000000001A
:101A5000806B416D41F040014165816D41F00401B1
:101A6000816503F0D9BF0000806B03F09DBF0000CB
:101A7000B0B50446006809F077FB0546206809F018
:101A800077FB014600203DBB002908BFB0BD2068A0
:101A9000816801F00D0101291FD109F00DFB2068BB
:101AA0000321016006F0C8FC05462068806810F03C
:101AB000010F04BF0020B0BD06F0BEFC401B032890
:101AC00004D32068806810F0010F06D12068806878
:101AD00010F0010FF0D10020B0BD606D40F010009B
:101AE0006065A06D40F00100A0650120B0BD000060
:101AF00070B50446006809F03BFB00281CBF0020BD
:101B000070BD206881683F22C8F20002114209D0EE
:101B1000606D40F010006065A06D40F00100A065B0
:101B2000012070BD09F0DCFA06F086FC054621684C
:101B300042F20002C4F2020202F5807602F540731E
:101B400046F20030C5F60200B14208BF1846914285
:101B500008BF184609F0E4FA2168B1420A4604BFFA
:101B600042F20002C4F20202002818BF8A4204D1E5
:101B70002168086810F0010F09D0002070BD00BF77
:101B800021680A68002012F0010F18BF70BD0846D6
:101B900009F0EEFA10B9206809F0A2FA06F04CFC40
:101BA000401B0328ECD32068006810F0010FE7D138
:101BB000606D40F010006065A06D40F00100A06510
:101BC000012070BD0000000040F27C00C2F2004025
:101BD00003F05ABF00000000FEE700000000000014
:101BE00010B5846B204604F093FC0120207110BDD9
:101BF00010B5846B204604F00BFB0120207110BD52
:101C000010B5846B206940F004002061204604F088
:101C1000DBFC0120207110BD10B5846B206940F001
:101C200004002061204604F0B7FB0120207110BDA4
:101C3000806B04F09DBC0000806B04F0EDBA0000E6
:101C400010B5044600F01CFA40F63430C2F20040F1
:101C50000021016040F67870C2F20040016040F659
:101C60004130C2F200400078002808BF10BD03A038
:101C70002146BDE810400DF08BB900BF5365744696
:101C8000726571204837205041353D256C75487A82
:101C90000D0A000000000000002818BF012040F6D7
:101CA0004131C2F20041087070470000000000009E
:101CB000B0B504469FED0B0A64202146002200F0D7
:101CC0001BFA054608B12846B0BD40F6BC40C0F638
:101CD000010048F28042C0F21E0221460DF058F980
:101CE0002846B0BD0000000000F0D6BA0000000099
:101CF000F0B581B02DED028B84B0B0EE408A144671
:101D00000D46074600F0F8F9064660B9B7EEC80A76
:101D100002978DED000B40F65950C0F601002946A0
:101D200022460DF035F9304604B0BDEC028B01B00F
:101D3000F0BD00000000000010B582B040F6F8745D
:101D4000C2F20044207800281EBF022002B010BD5D
:101D50000A2000F0CDF878BB002148F20000C3F261
:101D600000004FF0082200BF40F821200131B1F5FA
:101D7000007FF9D1BFF34F8F00214EF66872CEF28B
:101D8000000200BF0B1813602031B1F5006FF9D1CC
:101D9000BFF34F8FBFF36F8F0020009040F2C06001
:101DA000C2F2004048F20002C3F2000200214FF4E8
:101DB000007304F049FA08B102B010BD41F67E008C
:101DC000C2F20040012101702170002002B010BD5C
:101DD00041F67E03C2F200431B78B2F5807F18BF44
:101DE0007047012803D8002918BF002B00D1704785
:101DF00010B548F2000CC3F2000C0CEB80234FEA44
:101E0000002E4FF4004000BF31F8024B60F31F3446
:101E100043F8044B013AF7D10CEB8E00BFF34F8F20
:101E200000214EF66872CEF20002BDE8104000BFFD
:101E3000431813602031B1F5806FF9D1BFF34F8F94
:101E4000BFF36F8F70470000B0B52DED0E8B0024EF
:101E50009FED208A9FED209A9FED20AA9FED20BA4A
:101E60009FED20CAB6EE00DA41F27E05C2F20045CF
:101E70009FED1DEA0FE000BF30EE0D0ABCEEC00A78
:101E800010EE100A25F814000134B4F5806F04BF79
:101E9000BDEC0E8BB0BD00EE104AB8EE400A20EE4D
:101EA000080A20EE090A0DF0C7FBB0EE4B1A00EE4F
:101EB0000A1AB5EEC01AF1EE10FAB0EE4C0ADBDBEE
:101EC000B4EECE1AF1EE10FAB0EE410AC8BFB0EE91
:101ED0004E0AD1E7DB0FC9400000803A00E0FF4422
:101EE000000000450000000000F07F4500000000F9
:101EF000B0B58AB0044601AD28462421FEF771FB37
:101F00000020CDE9024040F2C060C2F20040294604
:101F1000002204F045FA08B10AB0B0BD40F2C0603A
:101F2000C2F2004001A9102204F03AFA0AB0B0BD92
:101F3000B5EEC00AF1EE10FA09DA9FED121A00BFF1
:101F400030EE010AB5EEC00AF1EE10FAF8DB9FEDB3
:101F50000D1AB4EEC10AF1EE10FA08DB9FED0A2A61
:101F600030EE020AB4EEC10AF1EE10FAF8DA9FED93
:101F7000071AB6EE002A00EE012ABCEEC20A10EEE5
:101F8000100A70470000B4430000B4C3610B364B25
:101F90002DE9F04F81B048F20001C3F2000101EBDE
:101FA000802A40F63430C2F20040046840F678706F
:101FB000C2F200400568002740F6303BC2F2004BF9
:101FC00040F67478C2F2004840F68079C2F20049C7
:101FD000DBF80010204600F02BF80646D8F8001079
:101FE000284600F025F840EA06404AF82700D9F8CC
:101FF00000000444D9F8000005440137B7F5807F9C
:10200000E6D140F63430C2F20040046040F6787009
:10201000C2F20040056001B0BDE8F08F0000000092
:1020200040F6F870C2F200400078704700000000EF
:10203000800D41F27E02C2F2004232F81000A0F59B
:10204000006041430220CFF6C0708142BEBF002035
:1020500080B2704740F20120C8F2100050FB01101E
:10206000821202EBD07000F500604FF2FF72C0F2F6
:102070003F029142C8BF40F6FF7080B27047000037
:1020800080B5002808BF012044F24021C0F20F01B2
:10209000884238BF014648F28042C0F21E0200204A
:1020A0000023FEF754FA40F68071C2F20041086046
:1020B00080BD00000000000080B59FED0E0A4FF4C7
:1020C0007A7000214FF4FA6200F016F8002818BF69
:1020D00080BD40F60F50C0F6010048F28043C0F2C8
:1020E0001E034FF47A714FF4FA620CF051FF002096
:1020F00080BD00BF000000002DE9F0412DED028BF6
:1021000082B0B0EE408A16460F46054640F6F87893
:10211000C2F2004898F8000008B100247CE01620C4
:10212000FFF7E6FE044620B13EA021460CF030FF4A
:1021300072E0384600F030F940F63031C2F200412A
:102140000860304600F028F940F67471C2F2004190
:10215000086040F63430C2F2004000240460B0EE63
:10216000480AFFF7E5FE40F67871C2F200410860C8
:102170002846FFF785FF0020FFF70AFF0120FFF741
:1021800007FFBFF34F8F48F20000C3F200004EF686
:102190006871CEF2000100BF22180A602034B4F545
:1021A000006FF9D1BFF34F8FBFF36F8F00250095FC
:1021B00040F2C060C2F2004048F20002C3F20002E6
:1021C00000214FF4007304F03FF8044620B121A031
:1021D00021460CF0DDFE1FE041F67E00C2F2004019
:1021E0000570012088F8000040F2D460C2F200407F
:1021F00008F0C6FC044670B1002088F8000040F2E8
:10220000C060C2F20040002104F09AF81AA02146F2
:102210000CF0BEFE00E00024204602B0BDEC028BB4
:10222000BDE8F0815B4441435D2054494D36207444
:1022300072696767657220636F6E66696775726140
:1022400074696F6E206661696C65643A2025640D5F
:102250000A0000005B4441435D206475616C2044CA
:102260004D41207374617274206661696C65643AD3
:102270002025640D0A0000005B4441435D20544961
:102280004D36207374617274206661696C65643ABE
:102290002025640D0A00000040F6F870C2F20040EC
:1022A0000178002908BF704710B50021017041F680
:1022B0007E00C2F20040017040F2D460C2F20040E1
:1022C00008F0BAFC40F2C064C2F20044204600218B
:1022D00004F036F8204600214FF400624FF400630A
:1022E00003F09EFF02A0BDE810400EF0F3BA00BF5D
:1022F0005B4441435D2073746F707065643B205094
:10230000413420616E64205041352061726520683F
:10231000656C64206E65617220312E363520560D55
:10232000000000000000000010B584B000240394F9
:10233000CDE9014444F2E840C5F60200016841F0ED
:1023400010010160006800F010000090009840F259
:10235000D460C2F2004041F20001C4F200017722D1
:10236000C0E90014C0E902428021816108F0BCFB91
:10237000002818BF01F0D0FF03942020019040F204
:10238000D460C2F2004001A908F046FB002818BF43
:1023900001F0C2FF04B010BDC0EB003000F6E44015
:1023A000C0089F21C0F6EE11A0FB01014A0940F2CE
:1023B000FF70824238BF48097047000000000000EB
:1023C000B0B52DED0E8B14460D460146002019B117
:1023D000002D18BF002C02D1BDEC0E8BB0BD9FEDBF
:1023E000370A40F68C70C2F2004090ED091A90ED69
:1023F0000A2A90ED0B8A90ED0CBA03EE101AB8EE93
:10240000433A23EE00EA2EEE010A0EEE408A90EDEA
:102410000D9A2EEE02AA28EE08DA0AEE0ADAB0EEDB
:102420004D0A0DF0D1F9B0EE40CA2EEE0BBA0EEE09
:102430004E9AB4EEC00AF1EE10FA05D7B0EE4D0A8E
:102440000DF0C2F9B0EE40CA2BEE0BDA09EE09DA54
:10245000B0EE4D0A0DF0B8F9B4EEC00AF1EE10FA84
:1024600003D7B0EE4D0A0DF0AFF99FED151AB4EE9B
:10247000C10AF1EE10FABEBF0020BDEC0E8BB0BD5C
:102480008CEE000A85ED000AB0EE4A0AF0EE480A2A
:102490000CF0D2FDB0EE408AB0EE4B0AF0EE490AE5
:1024A0000CF0CAFD9FED071A38EE400A20EE010A33
:1024B00084ED000A0120BDEC0E8BB0BDDB0FC940DE
:1024C0006F12833AE12E6542B0B502F049FC002458
:1024D00000200021FEF750FF01200021FEF74CFFF5
:1024E000FFF79EFD38B1FFF7D7FE40F2CC30C2F2C5
:1024F00000400470B0BD40F2CC34C2F200440C2065
:1025000020709FED090A00254FF47A7064210022A3
:10251000FFF7EEFB00280EBF0CA0257003A0BDE85E
:10252000B0400EF0D7B900BF000000005B4441434B
:102530005D2050413520746573742073746172742A
:10254000206661696C65640D000000005B444143D6
:102550005D2050413520746573743A206D65617358
:10256000757265205041352C2065787065637465FF
:102570006420312E36355620444320616E6420316C
:1025800030306D5670700D0010B502F0E9FB00247C
:1025900000200021FEF7F0FE01200021FEF7ECFEF6
:1025A000FFF73EFD38B1FFF777FE40F2CC30C2F2C4
:1025B0000040047010BD40F2CC34C2F2004406204A
:1025C0002070FFF779FD002808BF10BD00202070A3
:1025D00002A0BDE810400EF07DB900BF5B4441434E
:1025E0005D20746573742073746172742066616910
:1025F0006C65640D0000000010B502F0B1FBFFF740
:102600004BFE00200021FEF7B7FE01200021FEF75F
:10261000B3FE00F0CDFC40F2CC34C2F200440720FF
:10262000207001F0E1FC00280CBF0AA002A00EF00F
:1026300051F90020207010BD5B4441544120464CAC
:102640004153485D2074657374204641494C4544AC
:102650000D0000005B4441544120464C4153485D0D
:1026600020636F6D6D616E64203720636F6D706CD9
:102670006574650D0000000010B502F071FBFFF7F6
:102680000BFE002400200021FEF776FE0120002131
:10269000FEF772FE02F014FB48B140F2CC30C2F2F9
:1026A0000040047005A0BDE810400EF013B940F2E0
:1026B000CC30C2F200400D21017010BD5B4C4F4F79
:1026C000504241434B5D20737461727420666169AE
:1026D0006C65640D0000000010B502F041FBFFF7CF
:1026E000DBFD002400200021FEF746FE0120002132
:1026F000FEF742FE00F078FC88B140F68C70C2F222
:10270000004002F06DFA80B140F2CC30C2F20040DD
:10271000002101700FA0BDE810400EF0DBB840F2C0
:10272000CC30C2F20040047010BD40F2CC30C2F296
:1027300000400A21017042F2B060C0F601000EF0C4
:10274000C9F842F25040C0F60100BDE810400EF05A
:10275000C1B800BF5B4558542052554E5D2073747C
:10276000617274206661696C65640D000000000090
:10277000B0B502F0F5FAFFF78FFD00200021FEF75B
:10278000FBFD012501200021FEF7F6FD40F2CC34CF
:10279000C2F200440920207040F68C70C2F2004062
:1027A00009F0EEF828B100F003FC09A00EF092F851
:1027B0000AE040F6CC70C2F20040057040F68C7022
:1027C000C2F2004009F03CF900202070B0BD00BF0B
:1027D0005B4D4F44454C2053544F524147455D207B
:1027E0006E6F2076616C6964206D6F64656C207219
:1027F00065636F72640D0000B0B502F0B1FAFFF7C7
:102800004BFD002400200021FEF7B6FD0120002131
:10281000FEF7B2FD00F0CCFB40F2CC35C2F2004531
:102820000820287009F0ECFA04A207A1002808BFCC
:10283000114607A00CF0ACFB2C70B0BD636F6D703F
:102840006C657465000000004641494C4544000039
:102850005B4D4F44454C2053544F524147455D20FA
:10286000636F6D6D616E6420382025730D0A000062
:1028700010B5044602F074FAFFF70EFD4CB100F0FB
:10288000B3FB002808BF10BD2046BDE8104000F093
:10289000E7BD40F2CC30C2F200400021017002A03E
:1028A000BDE810400EF016B85B53454C46544553F6
:1028B000545D2073746F707065643B205041342008
:1028C000616E6420504135206172652068656C64DA
:1028D000206E65617220312E363520560D000000C5
:1028E00010B502F03DFAFFF7D7FC00F07DFB0028A1
:1028F00008BF10BD40F68C70C2F20040046974B18C
:10290000C0680BA20CA1042808BF11460CA02246E7
:102910000CF03EFB2046BDE8104000F0A1BD42F2A5
:10292000D070C0F60100BDE810400DF0D3BF00BF6D
:102930006E6F7463680000007065616B00000000DA
:102940005B53454C46544553545D20667265717522
:10295000656E63792073656C656374656420667267
:102960006F6D2073746F7265642025733A20256C37
:102970007520487A0D0A000080B502F0F1F940F2A6
:10298000CC30C2F2004002210170FFF785FC01202B
:102990000021FEF7F1FC09F013FF09F021FF0146C9
:1029A00004A04FF4DC720CF0F3FA0EA0BDE88040F6
:1029B0000DF090BF0D0A5B5461736B20325D2043B4
:1029C00048303D257520487A2C20616D706C697403
:1029D00075646520636F6D6D616E643D25750D0ACC
:1029E00000000000446973636F6E6E656374207449
:1029F0006865206B6E6F776E206D6F64656C20620A
:102A000065666F7265206D6178696D756D2D616D9C
:102A1000706C69747564652074657374696E672E73
:102A20000D00000000000000B0B50C46054602F0A5
:102A300097F940F2CC30C2F2004004210170FFF758
:102A40002BFC01200021FEF797FC28462146BDE81B
:102A5000B04009F041BF0000F0B581B0044602F07B
:102A60007FF940F2CC36C2F2004605203070FFF705
:102A700013FC002700200021FEF77EFC012000212E
:102A8000FEF77AFC00F094FA0CF0EAF80CF0DCF8AF
:102A9000054620460AF0F0FF0AF0F6FD0CF0E0F8DB
:102AA00037700CF0D1F8A8421CBF08A00DF012FF3F
:102AB0000AF0EEFF00280EBF14A042F20010C0F68C
:102AC000010001B0BDE8F0400DF004BF5B5541527C
:102AD000545D20696E7075742072656365697665F2
:102AE00064206F72207265636F766572656420641E
:102AF0007572696E67206C6561726E696E673B20E6
:102B00006469736361726465640D00005B4C4541E8
:102B1000524E204641494C45445D206E6F206E6503
:102B200077206D6F64656C207761732073617665C3
:102B3000643B20636865636B205043352F504133FD
:102B400020776972696E670D0000000000000000C8
:102B500010B50446002808BF10BD2046FDF74CFD07
:102B6000411E1E2900D910BD421C40F20840C2F28D
:102B700000402146FDF71CFD40F22840C2F2004013
:102B800000210170BDE8104000F062B800000000B4
:102B900080B54C2812DC2B2827D02D2830D140F2CC
:102BA000CC30C2F200400078022829D109F018FE8A
:102BB000652829D309F014FE643826E04D2818BF93
:102BC0006D281DD140F2CC30C2F2004000780228BE
:102BD00016D100204FF4DC71FEF7CEFB10A04FF4AD
:102BE000DC71BDE880400CF0D3B940F2CC30C2F2C9
:102BF00000400078022803D109F0F2FD643004E0BF
:102C0000BDE8804000F0B0BA642009F0F1FD014653
:102C100041F26550C0F60100BDE880400CF0B8B943
:102C20000D0A5B5461736B20325D20416D706C69DD
:102C30007475646520636F6D6D616E642072657379
:102C4000746F7265643A2025750D0A00000000005B
:102C500080B586B040F20840C2F2004000F0F8FBB8
:102C600005900078002800F00C8100F0A9F918B157
:102C700000F07AFA06B080BD05A804A900F050FA69
:102C8000F8B1059800F0E4FB01460590027804983D
:102C9000002A08BF022819D0002A08BF032819D02B
:102CA00005281CD1084600F0D3FB0178642918BF21
:102CB000442937D1013000F0CBFB0078C0BB0120A4
:102CC00032E041F67070C0F6010035E0FFF754FEC7
:102CD00006B080BD41F63070C0F601002CE0002A3D
:102CE00008BF06281AD0002A08BF072828D00828BD
:102CF0002AD105A803A900F013FA50B1059800F0F5
:102D0000A7FB0078002802BF039842F2B82188424E
:102D10003BD042F2D020C0F601000DE0FFF734FCBA
:102D200006B080BD21B90020FFF796FE06B080BD39
:102D300042F2A030C0F601000DF0CCFD06B080BD1F
:102D4000FFF75AFC06B080BD002A08BF092818D03A
:102D5000002A08BF0A281CD00A281ED105A803A9EA
:102D600000F0DEF940B1059800F072FB0078002811
:102D700004BF0398002846D042F24000C0F601008C
:102D8000DAE7FFF7F5FC06B080BDFFF735FD06B0CA
:102D900080BDFFF7A1FC06B080BD002A08BF0B284C
:102DA00010D00B2812D105A803A900F0B9F920B161
:102DB000059800F04DFB007888B342F2C000C0F6E1
:102DC0000100B9E7FFF78CFD06B080BD002A08BFFF
:102DD0000C281CD0002A08BF0D281CD00D2823D198
:102DE00005A803A900F09CF940B1059800F030FB5C
:102DF0000078002804BF0398002804D042F2700035
:102E0000C0F6010098E700F0DBFB06B080BDFFF7DD
:102E10005BFB06B080BDFFF72FFC06B080BD0398BA
:102E2000FFF726FD06B080BD04281BD1084600F040
:102E30000FFB0390017841F02001782930D110F880
:102E4000011F002918BF202928D1039003A802A937
:102E500000F066F920B1039800F0FAFA007888B320
:102E60001EA069E740F2CC31C2F200410978022984
:102E700008BF002A07D041F6F070C0F601000DF03F
:102E800029FD06B080BD09F0B3FC014641F2655052
:102E9000C0F601000CF07CF806B080BD0929D4D042
:102EA00005A802A900F03CF950B105A80DF10601F2
:102EB00000F0F6F820B1059800F0CAFA007830B1B9
:102EC00016A039E7029809F0B7FD06B080BDBDF83D
:102ED00006100298FFF7A8FD06B080BD0D0A4361F9
:102EE0006C6962726174696F6E20666F726D617475
:102EF0003A20342058207265666572656E63655F9E
:102F00006D562C20666F72206578616D706C65203F
:102F100034205820323031300D0000000D0A546149
:102F2000736B203420666F726D61743A20342066B2
:102F300072657175656E6379207461726765742C52
:102F400020666F72206578616D706C652034203169
:102F500030303020322E300D000000000000000024
:102F600080B5FEF735F90BF0C3FE40F2CC30C2F26B
:102F700000400021017000204FF47A71FEF740FA02
:102F800000200021FEF7F8F901204FF47A71FEF7D6
:102F900037FA01200021FEF7EFF941F6A070C0F6E4
:102FA00001000DF097FCBDE8804000F0DDB80000A6
:102FB00040F6CC70C2F20040002101707047000062
:102FC00080B540F20840C2F2004000F041FA0178BA
:102FD0003F291CBF002080BD013000F039FA007885
:102FE000B0FA80F0400980BDB0B540F6CC75C2F2B1
:102FF0000045287828B121A00DF06CFC0124204662
:10300000B0BD40F68C70C2F2004008F0B9FC28B1A7
:1030100006A00DF05FFC00242046B0BD01242C70FA
:103020000EA00DF057FC2046B0BD00BF5B4D4F44D5
:10303000454C5D206E6F2076616C6964206D6F6415
:10304000656C207265636F72643B2073656E6420EB
:10305000352066697273740D000000005B4D4F44AB
:10306000454C5D206C6F616465642066726F6D20F5
:103070004441544120464C4153480D005B4D4F4460
:10308000454C5D207573696E672063616368656494
:10309000207265636F726420696E2052414D0D008D
:1030A00070B50E460446006800F0D2F90278A2F12D
:1030B0003001C9B2092919D800214FF62063CFF693
:1030C000FF7300BF51FA82F101EB810103EB410173
:1030D00010F8012FA2F13005EDB20A2DF2D32E2AFD
:1030E00006D14278303AD3B2092B03D9002070BD03
:1030F000002208E0023000BF10F8013B303BDBB299
:103100000A2BF9D3013811444FF6FF72914238BFB0
:103110000A4632802060012070BD000000000000DF
:10312000B0B50C460546006800F092F90178A1F1AF
:103130003002D2B2092A84BF0020B0BD002200BFF5
:1031400002EB8202520052FA81F1A1F1300210F832
:10315000011FA1F13003DBB20A2BF1D328602260FA
:103160000120B0BD0000000080B542F23030C0F652
:1031700001000DF0AFFB42F25010C0F601000DF05F
:10318000A9FB42F21060C0F601000DF0A3FB42F271
:103190001040C0F601000DF09DFB42F28020C0F609
:1031A00001000DF097FB42F2A040C0F601000DF0C7
:1031B00091FB42F2D010C0F601000DF08BFB42F201
:1031C000B050C0F601000DF085FB42F24070C0F631
:1031D00001000DF07FFB42F26060C0F601000DF0CF
:1031E00079FB42F2C030C0F601000DF073FB42F2F1
:1031F0003020C0F601000DF06DFB42F23050C0F6F9
:1032000001000DF067FB42F2E040C0F601000DF056
:1032100061FB42F62000C0F601000DF05BFB42F2BC
:103220009070C0F601000DF055FB42F20070C0F640
:1032300001000DF04FFB42F25030C0F601000DF0DE
:1032400049FB42F27050C0F601000DF043FB42F220
:103250009000C0F601000DF03DFB42F2A010C0F658
:1032600001000DF037FB42F20030C0F601000DF016
:1032700031FB0BA00DF02EFB42F67000C0F60100F2
:103280000DF028FB42F6B000C0F601000DF022FB65
:103290000BA00DF01FFB18A0BDE880400DF01ABB7D
:1032A0000D0A5461736B2032206672657175656E0C
:1032B000637920636F6D6D616E64733A0D00000079
:1032C00020206D20202020202020202020202020B1
:1032D000202020203A20726573746F726520616D22
:1032E000706C697475646520636F6D6D616E6420C8
:1032F0003434300D0000000020203F20202020200A
:103300002020202020202020202020203A20736808
:103310006F772068656C700D0A0D000000000000DA
:103320002DE9F04381B001F04BFA40F2CC34C2F207
:10333000004420780D2818BF0A2805D101F014F99F
:10334000002804BF002020700DF1030000F044F9B4
:10335000002800F0678040F22847C2F200470FF2D1
:10336000CC080DF1030540F20844C2F200440026E7
:103370000FF2BC0902E06D280AD149E09DF8030074
:103380000C2813DC082821D00A2813D0397831B34F
:10339000A0F12002D2B25E2A3DD81E293CD84A1C98
:1033A0003A7060540DF090FA36E000BF7F280DD0DF
:1033B0000D28EBD1387800282ED026543E70484690
:1033C0000DF088FAFFF744FC26E000BF38780028AB
:1033D00022D00138387040460BF0DAFD1CE0A0F135
:1033E0002B02222AC7D8DFE802F01312131212129E
:1033F00012121212121212121212121212121312AC
:103400001212121212121212121212121300BFE72B
:10341000FFF7BEFB00E03E70284600F0DDF8002814
:103420007FF4ACAF01B0BDE8F08300BF0820080016
:103430000D0000000000000080B509F0D9F9014638
:1034400041F26550C0F60100BDE880400BF0A0BD20
:10345000017820291CBF092970470130F8E70000D6
:103460002DE9F0412DED028B86B0044605A904AA92
:10347000FEF7A6FF50B39DED058A4FF0000800202F
:103480000021FDF779FF01200021FDF775FF9FED79
:103490001E0AB6EE001A08EE001A40F2CC37C2F24D
:1034A00000470B20BCEEC11A38709DED040A11EEE6
:1034B000105A6426204664212A46FEF719FC48B1BA
:1034C00087F8008011A00DF005FA18E019A00DF0A2
:1034D00001FA14E09DED050A9DED041AB7EEC11A3C
:1034E000B7EEC00ACDE902658DED001B53EC102B41
:1034F00041F21850C0F6010021460BF049FD06B01C
:10350000BDEC028BBDE8F0810000C8425B53454C26
:1035100046544553545D204837206475616C2D44F2
:103520004143207374617274206661696C65640D37
:10353000000000005B53454C46544553545D206DDC
:103540006F64656C20726573706F6E736520636164
:103550006C63756C6174696F6E206661696C65641B
:103560000D0000000000000010B501F0F9FBFEF7AF
:1035700093FE002400200021FDF7FEFE0120002123
:10358000FDF7FAFE40F2CC30C2F20040047002A017
:10359000BDE810400DF09EB90D0A5B434F4E5452EA
:1035A0004F4C5D20616C6C206F7574707574732066
:1035B00073746F707065640D0000000000000000FF
:1035C00080B501F0CDFBFEF767FE40F2CC30C2F2D1
:1035D00000400021017080BD0BF06ABB00000000BC
:1035E00040F2E000C2F2004003F0D2BC0000000054
:1035F00040F25810C2F2004003F0CABC00000000C4
:10360000016840F20F42C4F20202914210DC6F22C4
:10361000C4F20202914220DC3F22C4F20202914233
:1036200036DC1022C4F20202914254D028224EE02D
:1036300040F26F42C4F2020291421ADC40F23F4271
:10364000C4F2020291422ADC40F21042C4F20202A9
:10365000914240D040F2284239E09F22C4F2020257
:10366000914225DC7022C4F20202914233D08822BA
:103670002DE040F29F42C4F2020291421FDC40F270
:103680007042C4F20202914225D040F288421EE00C
:103690004022C4F2020291421DD0582217E040F2AB
:1036A0004042C4F20202914215D040F258420EE06C
:1036B000A022C4F2020291420DD0B82207E040F2EB
:1036C000B842C4F20202914205D040F2A042C4F2D4
:1036D000020291421BD1D0F800C06FF00F0252FAE3
:1036E0008CF24AF6AB23CAF6AA23A2FB0331C1F33C
:1036F000021109A3595CC16540F2FF312CEA0101B6
:103700005F2A88BF41F0040181650846704701685F
:1037100021F0FF01F8E700BF0006101600061016A2
:1037200010B5026845F29441C5F6020145F24343E3
:10373000C5F602039A420EDD45F26B43C5F602035D
:103740009A4217DC45F24443C5F602039A421DD063
:1037500045F2584316E045F20843C5F602039A4283
:103760001EBF45F21C43C5F602039A420ED045F235
:10377000304307E045F28043C5F602039A4205D084
:1037800045F26C43C5F602039A4217D10378A3F1C0
:1037900008024CF6CD43CCF6CC43A2FB03231B0915
:1037A00001F57B7201F55B7101EB830103F01F03EF
:1037B000012404FA03F360300EC010BD03788A427E
:1037C000E5D0A3F110014AF6AB23CAF6AA23A1FB68
:1037D000031C4FF0080E4FEA1C1140F20F44C4F2D4
:1037E0000204A2420B4688BF0EEB1C13AA34A2426D
:1037F00028BF0B4640F60001C4F2020101F180022D
:10380000D2E700000000000001790139072988BFD4
:103810007047026845F24343C5F602039A420EDD43
:1038200045F26B43C5F602039A4217DC45F2444366
:10383000C5F602039A421DD045F2584316E045F200
:103840000843C5F602039A421EBF45F21C43C5F663
:1038500002039A420ED045F2304307E045F280431E
:10386000C5F602039A4205D045F26C43C5F6020341
:103870009A420ED14FEA810C45F60013C5F60203B9
:103880009C444033012202FA01F1C0E91BC34167A5
:1038900070474FEA810C45F29443C5F602039A4201
:1038A000EAD040F60013C4F20203E9E7000000008A
:1038B00082695AB1816AB2F5005F0FD103290BD832
:1038C000DFE801F00213021801207047816A022923
:1038D0000BD001290ED041B10020704703293CBF15
:1038E000012070471CBF0020704790F82F0000F0A7
:1038F00001007047C06AA0F1C070B0FA80F04009C2
:10390000704700000000000070B5D0F800E0D0F86B
:1039100058C040F26F44C4F20204A64516DC9F254D
:10392000C4F20205AE452CDC5725C4F20205AE45B3
:103930004FDC1025C4F20205AE451EBF2825C4F297
:103940000205AE4500F0868040256BE045F22F452C
:10395000C5F60205AE4527DC40F2B745C4F20205C4
:10396000AE4542DC40F27045C4F20205AE451EBFD2
:1039700040F28845C4F20205AE456BD040F2A04546
:1039800050E040F22745C4F20205AE453CDCA025DC
:10399000C4F20205AE451EBFB825C4F20205AE450D
:1039A00058D040F210453DE045F26B45C5F60205A2
:1039B000AE453CDC45F23045C5F60205AE451EBFBE
:1039C00045F24445C5F60205AE4543D045F258459B
:1039D0003BE05825C4F20205AE451EBF7025C4F277
:1039E0000205AE4536D088251CE040F2B845C4F249
:1039F0000205AE451EBF45F20845C5F60205AE45B7
:103A000028D045F21C4520E040F22845C4F20205CA
:103A1000AE451EBF40F24045C4F20205AE4519D086
:103A200040F25845C4F20205AE4513D0DDE045F240
:103A30006C45C5F60205AE451EBF45F29445C5F678
:103A40000205AE4506D045F28045C5F60205AE45F5
:103A500040F0CB80D0E919566E60C56E002D1CBFBA
:103A6000D0E91C566E60A64515DC9F24C4F2020402
:103A7000A6452BDC5724C4F20204A6454EDC1024D4
:103A8000C4F20204A6451EBF2824C4F20204A645BF
:103A900071D040246BE045F22F44C5F60204A645E0
:103AA00027DC40F2B744C4F20204A64542DC40F2EF
:103AB0007044C4F20204A6451EBF40F28844C4F21A
:103AC0000204A64557D040F2A04450E040F22744FB
:103AD000C4F20204A6453CDCA024C4F20204A645BC
:103AE0001EBFB824C4F20204A64544D040F21044DC
:103AF0003DE045F26B44C5F60204A64550DC45F2B4
:103B00003044C5F60204A6451EBF45F24444C5F63E
:103B10000204A64557D045F258444FE05824C4F259
:103B20000204A6451EBF7024C4F20204A64522D09A
:103B300088241CE040F2B844C4F20204A6451AD01E
:103B400045F20844C5F60204A6453CD045F21C44A3
:103B500034E040F22844C4F20204A6451EBF40F2FD
:103B60004044C4F20204A64505D040F25844C4F2D1
:103B70000204A64539D1C66D06F01F063F2505FA99
:103B800006F6CCF808600468266826F480262660CD
:103B90006360806840281EBFA160E26070BD1FE0C6
:103BA00045F26C44C5F60204A6451EBF45F28044AA
:103BB000C5F60204A64506D045F29444C5F60204B3
:103BC000A64518BF70BDC66D06F01F06012505FA93
:103BD00006F6CCF80460046863608068402802D16F
:103BE000A260E16070BDA160E26070BD00000000F5
:103BF00001700271110E4170110C8170110AC170B7
:103C0000704700000000000040F20040C5F60200CE
:103C10004FF48051012204F0FFBB000000000000BF
:103C200010B582B0B7208DF8070000F025FB08B171
:103C3000012409E000F0CCF90DF10700012100F0AA
:103C40009BFA0446FFF7E0FF204602B010BD0000DB
:103C5000B0B582B0054601240020B0EB556F26D1E7
:103C600040F22070C2F20040007800B300F090FAF9
:103C700008B101241BE000F0FFFA08B1012416E0AE
:103C800040F6FF7025EA00020DF1030420462021D2
:103C9000FFF7AEFF00F09CF92046052100F06CFA1A
:103CA0000446FFF7B1FF14B900F072FA044620464B
:103CB00002B0B0BD00000000F0B585B040F2207643
:103CC000C2F20046307810B1002005B0F0BD40F2DD
:103CD000D010C2F20040006843F60001C4F20001B7
:103CE000884201D02FA048E044F2E040C5F602002F
:103CF000016841F002010160006800F002000090DC
:103D0000009840F20044C5F602044FF480550127A4
:103D100020464FF48051012204F07EFB00950020E4
:103D20000490CDE90177022003906946204604F013
:103D30009FFA00F029F900F0D3F840F63C37C2F2C0
:103D400000473860C0F30745C0F30722C4B21FA084
:103D5000294623460BF01CF9EF2D0DD1192C11D15A
:103D600001203070FFF75CFFA0B10020307041F2FD
:103D7000F070C0F6010000E01FA00CF0ABFD0120C8
:103D800005B0F0BD40F62A60C0F6010021460BF0F8
:103D9000FFF8F4E7396840F66860C0F601000BF000
:103DA000F7F891E75B4441544120464C4153485D4C
:103DB0002053504932206973206E6F7420696E69F8
:103DC0007469616C697A65640D0000005B4441545C
:103DD0004120464C4153485D204A454445432049D3
:103DE000443A202530326C58202530326C5820253A
:103DF00030326C580D0A00005B4441544120464C5F
:103E00004153485D20756E65787065637465642004
:103E10006D616E7566616374757265722049440DDB
:103E20000000000000000000C0F1007200238A4280
:103E30004FF0000128BF0121B0F1007F38BF0123FE
:103E400003EA0100704700002DE9F04782B01446F4
:103E50000D46824600291FBF40F22070C2F200408A
:103E60000078002806D1002C18BF0124204602B09B
:103E7000BDE8F08750462146FFF7D6FF0028F2D074
:103E800024B30DF103084FF6FF7900BF404603212C
:103E90005246FFF7ADFE4C454FF6FF7638BF26463B
:103EA00000F096F84046052100F066F9074678B91B
:103EB000B1B2284600F05CF80746FFF7A5FE5FB9EF
:103EC000A41B3544B244E1D10024CFE70024CDE760
:103ED000FFF79AFE3C46C9E73C46C7E700000000F2
:103EE00010B582B09F208DF8070000208DF80600E5
:103EF000ADF8040000F06CF80DF10700012100F0AE
:103F00003BF910B1FFF780FE07E001A8032100F0A4
:103F10002FF80446FFF778FE14B1002002B010BD60
:103F20009DF804009DF805109DF80620090241EA5D
:103F30000040104302B010BDB0B582B00446052069
:103F40008DF8070000F044F80DF10700012100F0A2
:103F500013F9054620B92046012100F009F805466D
:103F6000FFF752FE284602B0B0BD0000000000007E
:103F70000A46014640F2D010C2F20040642306F027
:103F8000B7BA00000000000010B582B066208DF8BE
:103F9000070099208DF8060000F01AF80DF10700CF
:103FA000012100F0E9F80446FFF72EFE0CB102B043
:103FB00010BD00F00DF80DF10600012100F0DCF855
:103FC000FFF722FE012004F03FF902B010BD00000F
:103FD00040F20040C5F602004FF48051002204F088
:103FE0001BBA000000000000B0B588B00020CDE989
:103FF0000600CDE90400CDE90200CDE9000041A0B2
:104000004FF20004C0F2FF1421460AF0C1FFFFF78F
:1040100053FE08B145A016E02046FFF719FE08B18F
:104020004CA010E041F67000C0F601000CF052FC0C
:104030006D46204629462022FFF706FF40B141F297
:10404000C070C0F601000CF045FC012008B0B0BD06
:10405000002100BF6A5CFF2A16D101312029F9D363
:1040600041F29070C0F601000CF034FC40F63031A3
:10407000C0F601012046202200F0CAF858B141F6EE
:104080004000C0F60100DEE740F6B150C0F6010086
:104090000AF07EFFD9E7694620462022FFF7D4FECA
:1040A00020B141F62000C0F60100CCE740F63034E4
:1040B000C0F601046D46204629462022FCF7B1FADD
:1040C00048B1002101206B5C625C9A4212D101313F
:1040D0002029F8D30CE041F26070C0F601000CF02A
:1040E000F9FB41F6A000C0F601000CF0F3FB002044
:1040F00008B0B0BD40F6E950C0F601000AF048FF34
:10410000A3E700BF0D0A5B4441544120464C415394
:10411000485D207465737420736563746F723D30FD
:10412000782530386C580D0A000000005B4441547B
:104130004120464C4153485D20746573742073746C
:104140006F707065643A20696E6974206661696C8D
:1041500065640D005B4441544120464C4153485D29
:1041600020736563746F7220657261736520666188
:10417000696C65640D0000000A46014640F2D010EB
:10418000C2F20040642306F01BBB000000000000E8
:1041900070B582B004F050F9044600208DF8070095
:1041A00004F04AF9001B41F28836B0420FD80DF1F5
:1041B000070500BF2846FFF7BFFE78B99DF8070046
:1041C000C0070DD004F038F9001BB042F2D99DF8B9
:1041D000071005A00AF0DCFE032002E0012000E049
:1041E0000020C0B202B070BD5B4441544120464C37
:1041F0004153485D20627573792074696D656F75F0
:10420000742C205352313D3078253032580D0A003D
:10421000F0B581B014460D46064600291FBF40F296
:104220002070C2F200400078002805D1002C18BF91
:104230000124204601B0F0BD30462146FFF7F4FDD1
:104240000028F3D094B100BFF0B2C0F58077BC4233
:1042500038BF2746BAB23046294600F021F838B9AF
:10426000E41B3D443E44EFD10024E2E70024E0E7B4
:104270000124DEE70000000010B582B006208DF8B2
:104280000700FFF7A5FE0DF107000121FFF774FFFE
:104290000446FFF7B9FC204602B010BD0000000044
:1042A000F0B583B014460D460646501E80B2FF2876
:1042B00001D9012628E030462146FFF7B5FD20B19F
:1042C000FFF7DAFF18B101261EE001261CE00DF110
:1042D0000707384602213246FFF78AFCFFF778FECF
:1042E00038460521FFF748FF064610B1FFF78CFC62
:1042F0000AE028462146FFF73FFF0646FFF784FC09
:1043000016B9FFF745FF0646304603B0F0BD000082
:104310007047000000000000EFF3108072B600BF8D
:10432000FEE700000000000010B52DED108B0446E4
:10433000C8B1E068002843D094ED090AB5EE400A00
:10434000F1EE10FA11D194ED0A0AB5EE400AF1EE41
:1043500010FA0AD194ED0B0AB5EE400AF1EE10FA0C
:1043600003D10024DAE00024D8E094ED0D0AB5EE84
:10437000C00AF1EE10FA25DD2069411E4DF28E02D1
:10438000C0F2030291421FD89FED690B9FED669B1F
:1043900001EE100AB8EE411B21EE00AB8AEE090BCC
:1043A0000BF032FAB0EE408B0BF086F89FED621BFB
:1043B000B4EEC10BF1EE10FAC8BF8AEE089B05E01F
:1043C0000024ABE00024A9E09FED579B94ED09DAAF
:1043D00094ED0AFA94ED0BEA94ED0C0A94ED0D1AA3
:1043E000B7EEC00A29EE09AB29EE00CBB7EEC1BA91
:1043F0003AEE0C0B30EE0B8B51EC180B0AF0E8FC8C
:1044000060B1B0EE480B0BF057F89FED4D1BB4EECA
:10441000C10BF1EE10FA03DA00247FE000247DE006
:10442000B7EECF0AB7EECD1AB8EE002BB7EECE3A04
:1044300029EE000B2AEE014B3AEE0A5B3BEE0B6BCA
:1044400021EE021B33EE032B3AEE4C7B34EE409B05
:1044500034EE000B36EE454B0AEE012B37EE0B1B0C
:1044600039EE035B30EE030BB1EE443BB1EE411B82
:1044700082EE082B80EE080B85EE084B83EE083B9E
:1044800081EE081B40F2E030C2F20040B7EEC2BB42
:10449000B7EEC00BB7EEC4ABB7EEC39BB7EEC18BA4
:1044A00080ED000A80ED01BA80ED02AA80ED039A4A
:1044B00080ED048A10EE100A0AF09AFC38B31BEE65
:1044C000100A0AF095FC20B31AEE100A0AF090FCCC
:1044D00008B319EE100A0AF08BFCF0B118EE100ABE
:1044E0000AF086FC0024C8B140F2F833C2F200435F
:1044F000C3E9004440F2D430C2F20040012440F24B
:10450000E032C2F200420121FBF7E2FE06E00024A5
:1045100004E0002402E0002400E000242046BDEC7A
:10452000108B10BD00BF00BF0000000080842E4132
:10453000182D4454FB21194011EA2D819997713DA2
:10454000AC43D2D15D72323C40F6E441484300F2C4
:10455000FF7040F20111C0F21001A0FB0112801A9D
:1045600002EB5000C00A704740F6F970C2F20040FA
:1045700000787047000000002DE9F04F81B015462B
:1045800040F6F972C2F200421278B5F5807F03D18D
:10459000002918BF002A02D101B0BDE8F08F0090B9
:1045A000002040F22872C2F2004240F22473C2F2AC
:1045B00000439FED7F0A40F62C3CC2F2004C40F6CF
:1045C0002A36C2F2004600BF31F8104093ED001ABF
:1045D00002EE104AB8EE422A32EE412A02EE001AEA
:1045E00083ED001A82ED002ABCF80070BC4238BF8F
:1045F000ACF800403788BC4288BF348004320130B8
:104600008542E1D140F66430C2F2004000780228D1
:104610000FD140F2D430C2F2004040F22871C2F211
:10462000004140F66832C2F200422B46FBF75BFEC7
:104630000AE0AA0040F66830C2F2004040F2287159
:10464000C2F20041FBF7B4FF40F20040C2F200406A
:104650000068042856D340F20040C2F200400068CF
:1046600013284FD8002D4DD040F22877C2F20047D2
:1046700040F66838C2F2004840F67C76C2F2004646
:1046800040F6707AC2F2004A40F66C79C2F20049F4
:1046900040F2B86BC2F2004B2C4600BF97ED000A07
:1046A00040F62830C2F2004040F63831C2F20041F4
:1046B00000F09EFB98ED000A40F66870C2F20040E0
:1046C000314600F095FB98ED000A9AED001AB4EE21
:1046D000C10AF1EE10FAB8BF8AED000A99ED001A8E
:1046E000B4EEC10AF1EE10FAC8BF89ED000ADBF89A
:1046F00000000130CBF80000013C08F1040807F18C
:104700000407CBD1BDB340F66830C2F2004040F29E
:10471000B841C2F200419FED270A9FED271A40F2EF
:104720000442C2F20042B6EE002A9FED243A00BFD6
:1047300090ED004A34EE004AB5EEC04AF1EE10FAB0
:10474000B0EE415A06DBB4EEC34AF1EE10FAB0EE19
:10475000435A04DD136801331360B0EE454A34EE6A
:10476000024ABCEEC44A14EE103A21F8023B013D65
:1047700000F10400DCD140F2B841C2F200410098DF
:104780004FF48072FDF724FB40F20040C2F200407B
:1047900001460068013008600868142821BF40F213
:1047A000BD60C2F200400121017001B0BDE8F08F90
:1047B00000008037000000450000000000F07F4549
:1047C0002DE9F0412DED028B82B040F6F970C2F276
:1047D00000400078B8B140F27500C2F200400078A5
:1047E00028B140F2BF60C2F20040017881B140F2CE
:1047F000BD60C2F20040007828B140F2BC66C2F24F
:104800000046307880B102B0BDEC028BBDE8F0818B
:10481000012101705FA00CF05DF802B0BDEC028BCD
:10482000BDE8F04100F09CBA40F62A38C2F20048D8
:10483000B8F8000040F62C37C2F200473988401A19
:10484000FFF782FE044640F22470C2F2004090ED71
:10485000000AB6EE008A30EE080ABCEEC00A10EE7E
:10486000100AFFF771FE0546012030703888FFF707
:104870006BFE0646B8F80000FFF766FE024600959C
:1048800041F28D50C0F60100314623460AF080FB0C
:10489000A5F5AF60B0F5FA7F84BF4BA00CF01AF815
:1048A000E0087C2805D842F66010C0F601000CF044
:1048B00011F83888402804D3B8F80000B0F57C6FB0
:1048C00005D342F63010C0F601000CF003F840F2B8
:1048D0000440C2F20040016831B1016841F26060F9
:1048E000C0F601000AF054FB40F2B866C2F200467E
:1048F0003068002887D040F63830C2F200400268A5
:1049000040F2D030C2F2004007683068400800240E
:104910000021E7FB020132680023FBF718FE054681
:1049200040F67C70C2F20040026830684008002106
:10493000E2FB070132680023FBF709FE064640F65A
:104940006C70C2F2004040F67071C2F2004191ED0D
:10495000000A90ED001AB4EEC01AF1EE10FAC1BFD1
:1049600031EE400A30EE080ABCEEC00A10EE104AE2
:104970002046FFF7E9FD034641F21660C0F601004C
:104980002946324602B0BDEC028BBDE8F0410AF088
:10499000FFBA00BF5B4558542052554E5D2041443C
:1049A000432F444D41206572726F723B20726561E6
:1049B0006C74696D65206F75747075742073746F95
:1049C000707065640D0000005B4558542052554ED0
:1049D0005D205741524E3A20504335206269617341
:1049E0002073686F756C64206265206E656172204B
:1049F000312E363520560D0040F20041C2F2004102
:104A00000020086040F20441C2F20041086040F614
:104A10002C31C2F2004140F6FF720A8040F62A3182
:104A2000C2F20041088040F2B861C2F20041086061
:104A300040F63831C2F20041086040F67C71C2F2A3
:104A40000041086040F2BF61C2F20041087040F2CC
:104A5000BD61C2F20041087040F2BC61C2F2004187
:104A6000087040F22471C2F200414CF20002C4F21C
:104A7000FD420A6040F62831C2F20041087040F65B
:104A80006871C2F20041087040F67071C2F20041D4
:104A90004FF20002C4F27F520A6040F66C71C2F21B
:104AA00000414FF20002CCF27F520A6040F27501E1
:104AB000C2F2004108707047B0B50C46054600F0E0
:104AC0004FF9FDF7E9FB022D03D12046FFF72CFC3F
:104AD000F0B1FFF791FF4AF22010C0F2070007F093
:104AE00077FD40F2D031C2F20041086044F27950C3
:104AF000C0F60000FCF7F0FD044608B118A02AE05B
:104B0000FDF71AF9044660B1FCF73EFE20A022E052
:104B100042F6F000C0F601000BF0DCFE0124204656
:104B2000B0BD40F66430C2F20040057040F6F97046
:104B3000C2F200400121017040F25820C2F2004050
:104B400006F01EF80446002802BF00242046B0BD2F
:104B500000F006F919A021460AF01AFA2046B0BD65
:104B60005B4558542052554E5D20414443206369B3
:104B70007263756C617220444D412073746172746C
:104B8000206661696C65643A2025640D0A000000A6
:104B90005B4558542052554E5D205041342073746B
:104BA0007265616D20444D4120737461727420669A
:104BB00061696C65643A2025640D0A005B455854B0
:104BC0002052554E5D2054494D32207374617274E9
:104BD000206661696C65643A2025640D0A00000056
:104BE00010B588B001460220FFF766FF044660BB9F
:104BF00017A00BF06FFE40F2D030C2F20040016807
:104C000041F2D050C0F601000AF0C2F940F2E030A3
:104C1000C2F2004090ED000A90ED011A90ED022AD8
:104C200090ED033A90ED044AB7EEC44AB7EEC33AAA
:104C3000B7EEC22AB7EEC11AB7EEC00A8DEC081B58
:104C400053EC102B11A00AF0A3F9204608B010BDB8
:104C50005B4558542052554E5D206D6F64656C2045
:104C60007265706C617920737461727465643A2046
:104C700050433520696E707574202D3E2048287A87
:104C800029202D3E205041340D0000005B45585432
:104C90002052554E5D206269717561643A20623020
:104CA0003D25662062313D25662062323D25662025
:104CB00061313D25662061323D25660D0A00000008
:104CC00010B501200021FFF7F7FE044608B1204689
:104CD00010BD06A00BF0FEFD40F2D030C2F2004045
:104CE00001680FA00AF054F9204610BD5B4C4F4FED
:104CF000504241434B5D20737461727465643A2085
:104D000050433520414443202D3E2050413420441F
:104D100041432C20756E697479206761696E0D00BE
:104D20005B4C4F4F504241434B5D2046733D256CD9
:104D30007520487A2C20696E707574206D757374B7
:104D400020626520626961736564206E656172200E
:104D5000312E363520560D0A0000000000000000FC
:104D6000B0B540F6F975C2F200452C7814B9FCF7DD
:104D7000ABFCE0B10020287040F66431C2F2004183
:104D8000087040F25820C2F2004005F055FFFCF7D1
:104D90009BFC002818BFFCF7F7FCFDF77DFA002C00
:104DA00008BFB0BD02A0BDE8B0400BF093BDB0BDE0
:104DB0005B4558542052554E5D2073746F7070657A
:104DC000643B2050433520444D4120697320696481
:104DD0006C652C205041342F504135206E65617236
:104DE00020312E363520560D000000000000000056
:104DF000002818BF002900D17047B2EE001AB4EEA7
:104E0000C10AF1EE10FA09DABAEE001AB4EEC10ADC
:104E1000F1EE10FADCBFFF210170704790F900201D
:104E2000B2F1FF3FDEBF0A6801320A600121017062
:104E300070470000000000000138C1B2032984BFA0
:104E400004A0704740B240F6F021C0F6010151F8CD
:104E500020007047554E4B4E4F574E00000000004B
:104E600010B58EB040F64230C2F2004060A10DAAEB
:104E7000FBF7F4FB012803D10D98FEF7DDFA15E0EE
:104E800040F64230C2F200405DA10DAAFBF7E6FBFE
:104E900001281AD10D98FEF7CFFA81A0FDF758FE30
:104EA00041F2E360C0F6010000F072FA0D9B02AC23
:104EB00041F21472C0F60102204628210AF078F867
:104EC000204600F065FA0EB010BD40F64230C2F246
:104ED00000404FA10DAA0CABFBF7C0FB022804D188
:104EE00041F2A460C0F60100EBE740F64230C2F2A6
:104EF00000404CA10DAA0CABFBF7B0FB02281FD160
:104F00000C984CF6CD41CCF6CC41A0FB0112D10857
:104F10000D9B01EB8102A0EB4200CDE9001002AC39
:104F200041F24C72C0F60102204628210AF040F8F6
:104F30002046FDF70DFE41F2F260C0F60100C0E729
:104F400040F64230C2F200403BA1FBF75CFBE0B10F
:104F500040F64230C2F2004039A1FBF754FBC0B129
:104F600040F64230C2F2004039A1FBF74CFB30B3AF
:104F700040F64230C2F2004039A1FBF744FB30B3A7
:104F800041F2DA60C0F601009BE7FEF7EDFA41A0BE
:104F900097E741F2CD60C0F6010000F0F9F93CA0BE
:104FA000FDF7D6FD08F074FDB0B141F2B360C0F674
:104FB000010000F0EDF900F0FBF90EB010BD33A0D8
:104FC000FDF7C6FD41F20170C0F6010079E728A0A7
:104FD000FDF7BEFD28A074E741F2C060C0F60100F5
:104FE00000F0D6F941F28A60C0F6010069E700BF1F
:104FF00046342054325F4652455120256C750000DE
:1050000046342054325F535441525420256C75006D
:1050100046342054345F504152414D20256C752058
:10502000256C750046342054345F5354415254204B
:10503000256C7520256C750046342053544F500064
:105040004634204C4541524E5F5354415254000067
:105050004634205245504C41595F535441525400FC
:105060004634205245504C41595F53544F50000034
:10507000313020300000000041434B205245504C5D
:1050800041595F53544F500D0A0000003130000069
:105090003500000041434B2053544F500D0A00008F
:1050A000320000000000000010B540F64230C2F2AD
:1050B00000402EA1FBF7A7FA78B340F64230C2F2C7
:1050C00000402CA10322FBF7B9FAB0B340F64234FA
:1050D000C2F2004428A120460622FBF7AFFAB8B37B
:1050E00040F64230C2F2004025A1FBF78CFAA8B38B
:1050F00040F64234C2F2004423A12046FBF783FA73
:1051000060B32078002808BF10BD41F2DA60C0F615
:105110000100BDE8104000F03BB940F2BE60C2F2B1
:105120000040017821B90121017026A00BF0D2FBCB
:105130002EA0BDE8104000F02BB91DA040F6423172
:10514000C2F2004109F024FFBDE81040FFF788BE1D
:10515000A11D12A0BDE8104009F01ABF0CA000F07C
:1051600017F9BDE8104000F023B900BF50494E4781
:10517000000000004634200046344442472000002E
:1051800048454C4C4F0000005354415455533F0088
:1051900048375F52454144590D0A00005B463420B0
:1051A00053435245454E5D2025730D0A0000000013
:1051B0005B4837204C494E4B5D2052582025730DDB
:1051C0000A0000005B4837204C494E4B5D204634B6
:1051D00020686561727462656174206F6E6C696EBF
:1051E000653B20545820504F4E470D00504F4E47BE
:1051F0000D0A00000000000041F27A00C2F20040F7
:105200000021018040F66230C2F20040018040F28D
:10521000BE60C2F20040017041F27C00C2F2004068
:10522000018040F23830C2F2004000680F21016274
:10523000016841F020010160816841F00101816055
:1052400001A00BF047BB00BF5B4837204C494E4BD9
:105250005D205553415254332072656164793A2080
:10526000504231302054582C205042313120525875
:105270002C20393630300D002DE9F04182B00DF18F
:10528000070000F031F850B30DF1070440F6623624
:10529000C2F2004640F64237C2F20047002541F212
:1052A000DA68C0F6010800BF9DF807000D2811D08C
:1052B00031880A2804D17D54FFF7F6FE358009E0D5
:1052C0001E2903D84A1C3280785403E035804046BA
:1052D00000F05EF8204600F007F80028E4D102B0A4
:1052E000BDE8F081000000000146002804BF002056
:1052F0007047EFF3108072B641F27C02C2F20042B6
:10530000108841F27A03C2F200431B88C01A18BF0A
:1053100001200DD0B2F800C040F6FA73C2F200438B
:1053200013F80C300B701188013101F07F011180EE
:1053300062B670470000000010B540F23830C2F28B
:1053400000400068C16911F0200F1BD0D0F824C0C4
:1053500041F27A0EC2F2004EBEF8002041F27C0308
:10536000C2F200431B88013202F07F029A4209D048
:10537000BEF8003040F6FA74C2F2004404F803C0EC
:10538000AEF8002009071CBF0F21016210BD00000C
:1053900010B50446FBF730F982B240F23830C2F261
:1053A000004021466423BDE8104005F01DBE00000A
:1053B00010B5A2B012A806F0E3FA08B109A00CE0FB
:1053C0001598FFF739FD03461698009002AC0BA222
:1053D0002046402109F0ECFD2046FFF7D9FF22B01E
:1053E00010BD00BF5549204D4F44454C20554E4BF4
:1053F0004E4F574E20300D0A000000005549204DF9
:105400004F44454C20257320256C750D0A00000083
:10541000F0B581B016460F4604460020009094F87F
:105420005000012801D1022538E0012084F8500005
:105430002046FCF71DFB0546606D15B140F01000DD
:1054400028E041F20211884340F0020060652068C4
:105450003946324605F034FF206805F07DFE70B114
:105460004FF60006C2F2C356009801300090009833
:10547000B04209D2206805F06FFE0028F4D1606DBB
:10548000012161F3010005E0606D20F0120040F0A1
:1054900010000125002184F850106065284601B0F5
:1054A000F0BD000000000000704700000000000098
:1054B000704700000000000070470000000000007E
:1054C000704700000000000070470000000000006E
:1054D0002DE9F04182B00D46044690F850000128B5
:1054E00001D102201FE0012084F85000002001902B
:1054F0000090206842F20007C4F20207B8420AD1C5
:1055000007F58078404605F043FE0646206805F022
:105510003FFE30430BD0606D40F0200060650120FD
:10552000002184F85010C0B202B0BDE8F0812168BB
:1055300007F5407246F20000C5F6020041451646E6
:1055400018BF00F54076B94208BF16462B68B2680E
:1055500022F44042A3B16B681A43B26041F48071F7
:1055600042F20012C4F2020291421CD1384605F008
:1055700003FE0746404605F0FFFD384310BB15E02B
:10558000B26041F4807142F20012C4F20202914210
:1055900015D1384605F0F0FD0546404605F0ECFD16
:1055A000284378B910E005F0E7FD58B9B06840F637
:1055B0001F7188432968AA680843104308E005F072
:1055C000DBFD08B10020ABE7B06840F61F718843EF
:1055D000B0600020A4E700002DE9F04782B00D463E
:1055E00004460020019094F85000012801D10220C7
:1055F00011E1012084F85000206805F0C5FD28B1B4
:10560000606D40F020006065012001E12A68002AF9
:1056100013DB92FAA2F0B0FA80F04FF6FF71C0F2FD
:105620000F010A4208BF900E00F01F00012101FA8D
:1056300000F02168CB691843C8616968206805F0EB
:10564000BBFD206805F0A0FD0646206805F06CFD56
:10565000304366D12968AA68206805F0D9FD41F277
:105660000000C5F60040006800F07040B0F1805FB7
:1056700006D16A692068C0680E2101EA50030BE078
:105680002068C1686A69C068400811F0100F14BF33
:1056900000F0080300F00E0320682969042927D1CF
:1056A000026E2B68990602F0F842B2EB836F02BFDC
:1056B000026E22F000420266426E02F0F8428A4216
:1056C00002BF426E22F000424266826E02F0F84251
:1056D0008A4202BF826E22F000428266C26E02F0EF
:1056E000F8428A4202BFC16E21F00041C16618E053
:1056F00002FA03F32A6805F0CFFD296920686A7E63
:10570000013AB2FA82F25209D20705F0D1FD2969B5
:1057100020682A7E013AB2FA82F25209D20205F0DA
:10572000AFFD206805F024FD002870D12968EA68E3
:10573000206805F07DFDE8680021C4F2FF71884211
:1057400061D12A6813466FF31F5392FAA2F0B0FAA0
:1057500080F1002B084608BF900E013000F01E07B4
:105760002068092F0CD8C3B14A1C4FF0F84303EA54
:10577000826302F01F02012707FA02F213431BE0C3
:1057800013B34A1C4FF0F84303EA826302F01F028E
:10579000012707FA02F2134325E0012101EB92638E
:1057A00003F01F03994002F0F84303F1806303F014
:1057B000F8430B43C2F38461013101F01F0101EB97
:1057C000410143EA01511BE0012101EB926303F027
:1057D0001F03994002F0F84303F1806303F0F8439C
:1057E0000B43C2F38461013101F01F0101EB410160
:1057F0000022CFF6206202EB0151194341F0007103
:10580000AA6805F005FD2868B0F1FF3F07DD00201C
:10581000002184F85010C0B202B0BDE8F0872168C2
:1058200042F20006C4F2020606F5807706F54072E1
:1058300046F20008C5F6020808F5407AB94250461B
:1058400008BF1046B14208BF104605F061FC814612
:10585000206840F4807042F20011C4F202018842D4
:105860000BD1304605F084FC0646384605F080FC36
:10587000304300287FF4C4AE05E0404605F078FCD4
:1058800000287FF4BDAE29680020CCF2527081421E
:105890002BD00020CCF6843081422FD15FEA092042
:1058A000B5D420684045B2D149F40001504605F016
:1058B000DFFC40F20400C2F200400068800942F6BA
:1058C0006351C0F23E51A0FB01018809022101EBA6
:1058D000400001900198002899D00198013801906A
:1058E000002001990029F8D192E75FEAC9108ED40F
:1058F000206840458BD149F0807111E05FEA492072
:105900004FF000003FF584AF0022CCF6B872914210
:105910007FF47EAF206840457FF479AF49F4800181
:10592000504605F0A5FC72E7006842F20001C4F29F
:105930000201884218BF704740F6847CC2F2004CD6
:10594000DCF8001040F68872C2F200421278002A99
:1059500018BF002906D140F27400C2F200400121B4
:1059600001707047BFF34F8F002240F20001C3F275
:1059700000014EF65C73CEF2000300BF501800F534
:10598000007018602032B2F5007FF7D1BFF34F8F5F
:10599000BFF36F8FDCF8003001F5007101204FF488
:1059A0008072184700000000006842F20001C4F253
:1059B0000201884218BF704740F6847CC2F2004C56
:1059C000DCF8001040F68872C2F200421278002A19
:1059D00018BF002900D17047BFF34F8F002140F25C
:1059E0000002C3F200024EF65C73CEF2000300BF69
:1059F000881818602031B1F5007FF9D1BFF34F8FBF
:105A0000BFF36F8FDCF8003040F20001C3F20001F9
:105A100000204FF480721847016842F20002C4F27D
:105A20000202914218BF704740F27501C2F2004174
:105A300001220A7040F68871C2F20041097801B172
:105A40007047416D826D01A009F0A2BA5B54617389
:105A50006B20355D20414443206572726F72206374
:105A6000616C6C6261636B3A2073746174653D3084
:105A70007825303858206572726F723D3078253045
:105A800038580D0A000000002DE9F04381B00446AB
:105A900000680168426840F4807046F20038C5F63C
:105AA000020842F20016C4F20206B0420CBF06F52C
:105AB0000070404602EA0105AF0705F031FB814660
:105AC000002F0DD5606D10F0100F02BF606D40F417
:105AD000006060652046FFF7E7FC20680221016056
