:020000040800F2
:10000000A0070020C1010008EB1600083B160008FD
:10001000E91600088D0900085920000800000000BA
:10002000000000000000000000000000EF160008C3
:100030008F09000800000000ED160008151E0008DA
:10004000DB010008DB010008DB010008DB01000820
:10005000DB010008DB010008DB010008DB01000810
:10006000DB010008DB010008DB010008DB01000800
:10007000DB010008DB010008DB010008DB010008F0
:10008000DB010008DB010008DB010008DB010008E0
:10009000DB010008DB010008DB010008DB010008D0
:1000A000DB010008DB010008DB010008DB010008C0
:1000B000DB010008DB010008DB010008DB010008B0
:1000C000DB010008DB010008DB010008DB010008A0
:1000D000DB0100085120000855200008DB01000862
:1000E000DB010008DB010008DB010008DB01000880
:1000F000DB010008DB010008DB010008DB01000870
:10010000DB010008DB010008DB010008DB0100085F
:10011000DB010008DB010008DB010008DB0100084F
:10012000DB010008DB010008DB010008DB0100083F
:10013000DB010008DB010008DB010008DB0100082F
:10014000DB010008DB010008DB010008DB0100081F
:10015000DB010008DB010008DB010008DB0100080F
:10016000DB010008DB010008DB010008DB010008FF
:10017000DB010008DB010008DB01000800000000D3
:10018000DB010008DB010008DB010008DB010008DF
:10019000DB010008DB010008DB010008DB010008CF
:1001A000DB010008DB010008DB010008DFF80CD0F0
:1001B00000F02AFA0048004781200008A00700202C
:1001C0000648804706480047FEE7FEE7FEE7FEE7F1
:1001D000FEE7FEE7FEE7FEE7FEE7FEE7B51E0008E6
:1001E000AD0100082DE9F05F0546002092469B46D0
:1001F00088460646814640241BE02846414647463D
:10020000224600F0AEF953465A46C01A914110D327
:1002100011461846224600F095F92D1A67EB0108A1
:100220004F4622460120002100F08CF917EB00090F
:100230004E41201EA4F10104DFDC484631462A4627
:100240004346BDE8F09FD2B201E000F8012B491E01
:10025000FBD270470022F6E710B513460A46044663
:100260001946FFF7F0FF204610BD421C10F8011B95
:100270000029FBD1801A704710B5002200E0521C03
:10028000835C8C5CA34201D1002BF8D1D8B2E1B2DF
:10029000401A10BD30B505460020034600E05B1C47
:1002A000934205D2EC5CC85C201A01D1002CF6D137
:1002B00030BD00000FB400B58DB010A909900B90AF
:1002C00000914FF0FF300A9000200C9005480690F6
:1002D000054807906A4609A80F9900F067F90DB024
:1002E0005DF814FBC9050008E70500082DE9FF5F6C
:1002F0001D464FF0FF3BD5E9014691465F464FF062
:100300000008A9697F1C01988847296A82468847A6
:100310000028F6D1BAF1FF3F0CD024F4C064002EBF
:1003200019DD600614D5BAF12B0F09D0BAF12D0FE3
:100330000ED103E0584604B0BDE8F09F44F4806459
:10034000A9697F1C01988847761E8246002E02DD2F
:10035000BAF1300F03D0B9F1000F26D032E0A9690D
:10036000761E44F400747F1C019888478246002E54
:1003700005DDBAF1780F06D0BAF1580F03D0B9F104
:10038000000F10D01EE0B9F1000F02D0B9F1100F2C
:1003900018D1A969761E24F400747F1C019888473F
:1003A0008246102002E0082000E00A20814609E091
:1003B00008FB0908A969761E44F400747F1C0198A3
:1003C00088478246002E05DD4946504600F0D9F8A0
:1003D0000028EDDAE96901988847A00502D46FF09A
:1003E0000100A8E7E00725D1600613D5600502D516
:1003F000C8F1000000E0404629680A1D2A6009682B
:10040000220501D5087015E0220701D5088011E00A
:1004100008600FE02868011D29600068210502D5E9
:1004200080F8008006E0210702D5A0F8008001E0F6
:10043000C0F8008038467EE72DE9FF5FD2E901A7CA
:100440004FF00008916999461446DDF838B04646E9
:1004500001988847054659EA0B0005D009E0A169D3
:10046000761C019888470546216A28468847002857
:10047000F5D1681C03D05FEACA7005D015E04FF0D3
:10048000FF3004B0BDE8F09F2068011D2160D0F866
:1004900000800AE05FEACA7001D108F8015BA16937
:1004A000761C7F1E019888470546002F1ADD681CC0
:1004B00018D0B9F1000F0DD0E81705EBD06042114C
:1004C00020F01F0059F822102A1A01209040014202
:1004D000E0D107E0BBF1000FDCD1216A2846884754
:1004E0000028D7D0E16901988847BBF1000F07D1F8
:1004F000002E05DD5FEACA7002D1002188F80010E5
:10050000A068B84203DDBBF1000F03D017B16FF054
:100510000100B6E73046B4E730B50B46014600208F
:100520002022012409E021FA02F59D4205D303FAB5
:1005300002F5491B04FA02F52844151EA2F1010236
:10054000F1DC30BD202A04DB203A00FA02F1002061
:1005500070479140C2F1200320FA03F31943904001
:100560007047202A04DB203A21FA02F0002170476C
:1005700021FA02F3D040C2F120029140084319460B
:1005800070473A2800D2303820F02002412A01D3A7
:10059000A2F13700884201D34FF0FF3070470000CE
:1005A000026811441378016018467047D16004490D
:1005B00051610449116200211161114600F03CB8FB
:1005C000A10500082D060008426842B1016811F833
:1005D000013B23B1521EC0E90012184670470121A9
:1005E000C160881E704742685AB1C368016843B948
:1005F00083688B4205D0491E521CC0E900120020BE
:1006000070474FF0FF307047064C074D06E0E0683A
:1006100040F0010394E8070098471034AC42F6D349
:10062000FFF7C8FD4025000860250008C0B24FF460
:10063000F05100F097B900002DE9F34F8BB04FF067
:10064000000801F10C000C464FF0010B46460DF17D
:10065000080A01906269012101989047051E2DD07A
:10066000252D2CD0216A8847C0B1626901210198EB
:100670009047216A88470028F7D1411E6269019896
:10068000904700E0761CA1690B988847216A88474B
:100690000028F7D1E1690B988847DBE7A1690B983F
:1006A00088470746A84201D1761CD3E7E1690B9839
:1006B00088477F1C02D1B8F1000F6FD046E10027B8
:1006C00062693D463946019890472A2804D16269FB
:1006D0000121019890470125DFF884926269012188
:1006E00001989047A0F130010A290AD24F45E5DC74
:1006F00007EB870100EB4107303FDFD445F01005E1
:10070000ECE7E90601D46FF000476C280AD04C28CA
:1007100014D0682815D06A280DD074281CD07A28E7
:100720001AD01DE062690121019890476C2802D01F
:1007300045F0040514E045F002050DE045F0200504
:100740000AE06269012101989047682802D045F0CB
:10075000080505E045F400656269012101989047AC
:10076000C4E9015765283DD019DC58287AD00CDC43
:10077000452837D004DC252826D0412831D131E066
:1007800046282FD047282CD12CE05B2877D0612831
:1007900028D063287CD0642823D15AE0D0E06F2889
:1007A00048D008DC66281DD067281BD0692821D0D6
:1007B0006E2816D127E0702845D0732868D0752898
:1007C00047D078280DD14DE0A1690B9888470546A0
:1007D00025283FF469AFE1690B9888476D1C3FF409
:1007E0006AAFB3E023466A466FF001000B99AFF39E
:1007F00000809EE045F040006060A80723464FF06F
:10080000000236D43EE0E8077FF447AF2068011DC0
:1008100021600068290501D506701BE7290701D56D
:10082000068017E7A90703D5F117C0E9006111E7B2
:1008300006600FE745F040006060A80723464FF0D0
:10084000080216D41EE040F60E0125EA01006060A1
:1008500016E045F040006060A80723464FF00A020A
:1008600007D40FE045F040006060A80708D5234694
:1008700010226FF001000B99AFF3008059E007E000
:10088000234610226FF001000B99FFF72FFD50E077
:100890004FF000094F464B46632802D05B2806D034
:1008A00040E0E80601D40120A06001273AE0626937
:1008B0000121019890475E2805D14FF00109626936
:1008C000494601989047216939B900210A465346A3
:1008D00043F82120491C0829FADBB0B3216969B922
:1008E000C11700EBD16253110AEB830122F01F0202
:1008F000821A01200B68904003430B60626901215A
:10090000019890475D28E8D1B9F1000F09D0002087
:10091000514651F82020D24341F82020401C08289D
:10092000F7DB02AB224600976FF001000B99FFF74F
:1009300083FD00280CDA401C08D1BBF1000F05D064
:100940004FF0FF300DB0BDE8F08FFFE74046F9E70C
:10095000E90701D108F1010806444FF0000B79E6E0
:10096000CCCCCC0C7F2801D9002208E0064A02EB4F
:100970005002C007127800D1120902F00F020120C4
:100980009040084070470000D0240008FEE7704700
:1009900072B6FEE78C48002141808180C1800170E1
:1009A00092480068C16841F02001C160416941F08E
:1009B00001014161704700BF2DE9F04F8DB0DFF8B4
:1009C0005C91DFF85CA14FF0000856A657A50FF226
:1009D000681B09AF09F1080472B6B9F80400B9F848
:1009E0000210884200F09580B9F804001AF800005F
:1009F000B9F8041001310D2801F07F01A9F80410A5
:100A000062B6E9D0B9F806100A281AD104F80180B4
:100A100020463146FFF730FC00284AD020462946C0
:100A2000FFF72AFC002844D0204659460322FFF74E
:100A300031FC70B1204641A1FFF71EFCE0BB002055
:100A400038E01E2938D84A1C4944A9F80620087203
:100A5000C2E708AE20463BA13A465D46BB46334658
:100A6000FFF728FC02280ED1012001215A4601F08F
:100A7000F9F802AE089B414A1421304601F054FBBC
:100A8000012002210FE0204633A13246FFF712FC7D
:100A9000012814D102AE089B384A1421304601F0D7
:100AA00043FB00200121324601F0DCF8AB461FA5D4
:100AB0001CA6012089F80000A9F806808CE72046D2
:100AC00029A1324607ABFFF7F5FBAB46022817A575
:100AD00014A6EED1089B294A02A8142101F024FB98
:100AE00000200C2102AA01F0BDF807980A2124A2D7
:100AF000B0FBF1F303EB8301A0EB41001421009064
:100B000002A801F011FB00200D2102AA01F0AAF8B1
:100B1000CFE762B60DB0BDE8F08F00BF2000002027
:100B200020020020504F4E470000000048375F521F
:100B300045414459000000005549200048375F45B1
:100B4000525200005549204D4F44454C2025313527
:100B50007320256C75000000554920543220465200
:100B6000455120256C7500005549205434205041D2
:100B700052414D20256C7520256C750028250008F4
:100B8000256C752E256C750010B518480068016835
:100B900011F0200F13D0DFF830E0D0F804C0BEF819
:100BA0000220BEF80430013202F07F029A4206D0E1
:100BB000BEF80230054C04F803C0AEF80220090765
:100BC00018BF406810BD00BF200000202002002098
:100BD00010B5044640B12046FFF747FB82B20348F8
:100BE0002146642300F0CEFC10BD00BF640000204D
:100BF000B0B5044600F0DCF805468D48611C00786D
:100C000018BF044400F0D4F8401BA042FAD3B0BD92
:100C10002DE9FC4F5F4A0A274FF001094FF0030A04
:100C20004FF0000B4FF0000E002690425A4A08BFCA
:100C3000092702444FEAB223092B38BF4FEAB227F3
:100C40000097102E08BFBDE8FC8F0C6809FA06F368
:100C50001C4200F098804D6805F00304671E012FC8
:100C600015D8D0F808C00AFA0EF72CEA070CCF689E
:100C700007FA0EF747EA0C078760C5F3001707FA73
:100C800006FC47689F4347EA0C07476001E0032CD6
:100C90001DD0C2680AFA0EF7022C22EA07028F68FA
:100CA00007FA0EF742EA0702C26010D13E4C0BF081
:100CB0001C020F27974004EA560505442C6A24EAD3
:100CC00007070C6904FA02F23A432A624D68046885
:100CD00005F003020AFA0EF715F4403F02FA0EF28D
:100CE00024EA070742EA070202604CD000222B4C9C
:100CF0000BF00C0501922B4AA4461746126842F4E9
:100D000080423A603A6802F48042019226F003027F
:100D10002244264C019FA04617590F24AC40A743FC
:100D2000009C04FA05F52F4342F80870DCF808200F
:100D30004D6842EA030715F4801F08BF22EA030743
:100D4000174A15F4001FCCF808701446126842EADE
:100D5000030708BF22EA030715F4003F2760DCF809
:100D6000042042EA030708BF22EA030715F4803F84
:100D7000CCF80470DCF8002042EA030708BF22EA3E
:100D80000307CCF800700BF1040B0EF1020E0136D4
:100D900057E700BF002402400000FEBF003C0140B6
:100DA0000C3C014044380240FCFFFF7F08FCFFFF81
:100DB0001F488068704700BF1D4801788268114451
:100DC0008160704780B50B48016841F40071016093
:100DD000016841F480610160016841F48071016043
:100DE000032000F073F80F2000F006F800F022F85E
:100DF000002080BD003C024070B50D4E04464FF40B
:100E00007A713078B1FBF0F08E490968B1FBF0F0EF
:100E100000F00CFB01250F2C08D838B94FF0FF303B
:100E200021460022002500F02FF87460284670BD8E
:100E30001000002082B000200B4901904A6842F463
:100E400080424A604A6802F480420192019A00900E
:100E5000086840F080500860086800F080500090FA
:100E6000009802B0704700BF40380240002808DBFD
:100E700000F01F010122400902FA01F1014A42F883
:100E80002010704700E100E010B5164B1B68C3F35B
:100E9000022E0EF1040CAEF103048EF00703BCF138
:100EA000070F4FF0010C38BF0024042B28BF042388
:100EB0000CFA03F3013B19400CFA04F3013BA14087
:100EC0001A401143BDE8104001F0C8B805494FF67B
:100ED000FF030A681A4060F30A22034810430860BF
:100EE000704700BF0CED00E00000FA052DE9F0416D
:100EF00088460446002800F08780454BD3F800045C
:100F000000F00F00404507D283F80084D3F80004B6
:100F100000F00F00404577D1206810F0020F11D08B
:100F2000410742BF996841F4E0519960010742BF0F
:100F3000996841F4604199609968A26821F0F001D4
:100F400011439960C0072DD06068811E022904D228
:100F5000196811F0007F0BD156E0012804D11968FF
:100F600011F4003F04D14FE0196811F0020F4BD08B
:100F700099681D4621F0030108439860FFF718FFA8
:100F8000064641F28837A86861682B4600F00C00DD
:100F9000B0EB810F06D0FFF70BFF801BB842F2D9F0
:100FA000032032E0D3F8000400F00F00404507D9D9
:100FB00083F80084D3F8000400F00F00404523D1EB
:100FC000206810F0040F05D09968E26821F4E05120
:100FD00011439960000706D59868216920F46040A4
:100FE00040EAC10098601C4600F032F8A168094A46
:100FF000C1F30311515CC8401249086006480068FB
:10100000FFF7FAFE002000E00120C0B2BDE8F08149
:1010100000380240102500081400002009480A4941
:101020000A4A00680968C1F38221515CC8407047D0
:1010300004480549054A00680968C1F34231515C1A
:10104000C84070471C0000200838024020250008D6
:1010500010B5F34C606800F00C00082804D0042898
:1010600014BF1048104810BD226820680E490023A4
:1010700010F4800F02F03F0204BF42F20041C0F2C0
:10108000F4012068C0F38810A1FB0001FFF7AAF863
:1010900021680222C1F3014102EB4101B0FBF1F0F2
:1010A00010BD00BF0024F40040787D012DE9F84315
:1010B0000446002800F065812078D84ED84FC0073C
:1010C000B14654D0786800F00C00042807D130688D
:1010D00010F4003F4BD06068002848D151E1786897
:1010E00000F00C00082803D1386810F4800FEED10E
:1010F0006668B6F5803F09D0D9F80000C846B6F555
:10110000A02F17D140F48020C8F80000D9F80000C3
:101110004E4640F48030C9F80000FFF749FE05460E
:10112000306810F4003F22D1FFF742FE401B6428D4
:10113000F6D9C3E020F48030C8F80000D8F80000E9
:1011400020F48020C8F80000FFF732FE002E05468C
:101150004646E5D1D9F800004E4610F4003F06D0CF
:10116000FFF726FE411B03206429F3D90AE120780A
:1011700080072FD5786810F00C0F08D0786800F041
:101180000C0008280BD1386810F4800F07D13068A4
:1011900010F0020F17D0E068012814D0F1E0E068E9
:1011A000002800F08D809F4801210160FFF700FEBC
:1011B0000546306810F0020F05D1FFF7F9FD401B1E
:1011C0000228F6D97AE03068216920F0F80040EA78
:1011D000C10030602078000722D56169914879B15B
:1011E0000121C0F8801EFFF7E3FD0546386F10F0BF
:1011F000020F15D1FFF7DCFD401B0228F6D95DE098
:101200000021C0F8801EFFF7D3FD0546386F10F0AF
:10121000020F05D0FFF7CCFD401B0228F6D94DE0A8
:101220002078400740F18080F86B4FF0000810F004
:10123000805F0CD1CDF800804FF00108F86B40F0D2
:101240008050F863F86B00F0805000900098764E64
:10125000484659F8060010F4807F14D159F806006A
:1012600040F4807049F80600FFF7A2FD05464846A5
:1012700059F8060010F4807F05D1FFF799FD401B57
:101280000228F4D91AE0A668012E05D0F86E052EC2
:101290002AD140F00400F866F86E40F00100F866CC
:1012A000FFF786FD054641F28836F86E10F0020F12
:1012B00033D1FFF77DFD401BB042F6D9032061E03A
:1012C000584800210160FFF773FD05464846D9F8EC
:1012D000000010F0020F3FF47DAFFFF769FD411BE6
:1012E00003200229F2D94DE020F00100F866F86EE3
:1012F00020F00400F866FFF75BFD0546002ED2D112
:1013000041F28836F86E10F0020F06D0FFF750FD5C
:10131000411B0320B142F5D934E0B8F1000F1EBFE4
:10132000F86B20F08050F863A669002E74D07868BE
:1013300000F00C00082829D1012E22D03868E1697C
:1013400000F480028A421CD1216A00F03F028A42E6
:1013500017D147F6C071626A0140B1EB821F10D10C
:10136000A16A4FF6FF72C903914300F44032A1F520
:1013700080318A4205D1E16A00F07060B0EB016F04
:101380004AD00120C0B201B0BDE8F0832549002059
:1013900088460866FFF70CFD0546022E0CD148462C
:1013A000D9F8000010F0007F13D0FFF701FD411BBA
:1013B00003200229F3D9E5E74846D9F8000010F0E8
:1013C000007F29D0FFF7F4FC411B03200229F3D949
:1013D000D8E704F11C064FCE0843D90340EA821037
:1013E0004FF6FF72914340EA0660A1F58031084351
:1013F00038600120C8F86000FFF7DAFC0446484670
:10140000D9F8000010F0007F06D1FFF7D1FC011BD6
:1014100003200229F3D9B5E70020B3E700380240E2
:1014200004380240000047420038FEFF411E002001
:10143000B0EB116F1CBF01207047044AF0235160CC
:1014400003490B70072190601160704710E000E0C5
:1014500023ED00E010B5044648B394F8410028B9E4
:10146000002084F84000204600F024F8242084F86E
:1014700041002068C16821F40051C160204600F09D
:1014800049FD2068016921F490410161416921F021
:101490002A014161C16841F40051C160002020214E
:1014A000606484F8411084F84210606310BD01202C
:1014B00010BD000010B586B0044601A81421FEF747
:1014C000C9FE2068874988422DD07849884255D185
:1014D0000020674900904A6942F010024A614A6957
:1014E00002F010020092009A00900A6842F0010295
:1014F0000A60096801F0010100910099022102913E
:101500004FF4C06101910390032001A904900720CA
:1015100005901B48FFF77CFB252005210022FFF7E3
:10152000B3FC252028E00020514900900A6942F4CC
:1015300000320A610A6902F400320092009A0090B7
:101540000A6842F001020A60096801F00101009195
:101550000099022102910C2101910390032001A91D
:101560000490072005900648FFF752FB262006212D
:101570000022FFF789FC2620FFF778FC06B010BD9B
:10158000000002402DE9F843044690F841001D4652
:101590001746884620281CD1B8F1000F4FF00100F3
:1015A00018BF002F16D04FF000092120C4F8449036
:1015B00084F84100FFF7FCFBA784E7840646A06897
:1015C000B0F5805F0AD12769002F0CBFC14647469E
:1015D0001CE00220C0B201B0BDE8F083474615E030
:1015E0002046802132462B4600F0FAFC00BB1FB19A
:1015F00017F8011B206805E039F8021B2068002756
:101600006FF35F214160E08C0138E084E08C0028BA
:10161000E6D12046402132462B4600F0E1FC202155
:10162000002884F8411018BF032001B0BDE8F08302
:10163000202084F841000320CCE7FEE782B00020A0
:101640000B4901900A6842F080020A600A6802F0C1
:1016500080020192019A0090086840F00100086041
:10166000086800F001000090009802B0704700BFC9
:101670003038024080B50C480C4A4FF41651002314
:101680004FF00C0CC0E90021C0E90233C0E9043C72
:10169000C0E90633FFF7DEFE002814BFBDE8804036
:1016A00080BDFFF775B900BF640000200010014045
:1016B00080B587480B4A4FF4165100234FF00C0CAD
:1016C000C0E90021C0E90233C0E9043CC0E90633A7
:1016D000FFF7C0FE002814BFBDE8804080BDFFF7C3
:1016E00057B900BF00440040FEE7FEE7704770476F
:1016F000F0B593B0054603AF1646CDE900120C468F
:1017000042A2402138462B4600F00EFD3846FFF736
:101710005FFA012D00F27880002E00F07580FFF74F
:1017200047FB41490A88AA4207D14A88A24204D10C
:101730003E4AD268821A962A66D33C4A002D4C80D3
:101740000D80D06007D0052C11D0042C11D0032CB3
:101750005AD141A056E0A01E092855D8DFE800F074
:101760000B111E052228343A480540484AE030A0B3
:1017700048E034A046E08868652824BF6438886063
:1017800009E08868454A6430904238BF0246642ABE
:1017900098BF64228A6000F005FA35E08B6803ACDC
:1017A00039A22AE0C868652824BF6438C8601CE0F4
:1017B000C86840F6B8326430904238BF0246642AA6
:1017C00098BF6422CA6010E088880B2824BF0138C3
:1017D00088800AE08888013082B2142A28BF142049
:1017E00082B20A2A98BF0A20888000F0F9F90BE03B
:1017F0008888CB6803AC1EA200902046402100F0F0
:1018000093FC2046FFF7E4F913B0F0BD46344442A0
:101810004720525842544E205025752043257520AC
:101820005325750D0A000000000000205400002020
:101830004634205245504C41595F53544F500D0A85
:10184000000000004634205245504C41595F53542B
:101850004152540D0A0000004634204C4541524E7E
:101860005F53544152540D0A000000002C2500081B
:1018700046342054345F535441525420256C752013
:1018800025750D0A0000000046342054325F535481
:1018900041525420256C750D0A00000040420F0093
:1018A000EA48D94A00214FF0FF338180018101705D
:1018B00041801360C160C180B8480068C16841F0D0
:1018C0002001C160416941F001014161704700BFE1
:1018D000AC0000202DE9F04F8FB0974E974F984CF9
:1018E00000250DF114090FF25C2C4FF0010A4FF0A6
:1018F000EE0B72B6F088B188884200F01881F0884B
:10190000385CF1880131C9B2F18062B6317831B109
:101910003189B1F5967F0BD335813570E9E7EE2833
:10192000E7D1A6F808A086F800A084F800B0E0E7A8
:101930004A1C605490B232810528DAD3211811F87C
:10194000042CFF2AD5D111F8032CFC2AD1D111F88F
:10195000022CFF2ACDD111F8011CFF29C9D107287B
:10196000DAD32178EE29D7D194F8018048F002012A
:10197000032926D10A28CFD36088A18873886246BC
:1019800009BA00BA000C090CCDE900800491CDE938
:1019900002104846282100F0C7FB4846FFF718F917
:1019A000B8F1010F7CD10498B0F5D27F814621D3E4
:1019B0000398000918288CBF0120002000F032F99C
:1019C0006EE00E28A8D3B8F1B10FA5D1A0781128E8
:1019D000A2D1E07910289FD1B4F80300B4F8051023
:1019E000627AE04600BA09BA000C090CFFF780FEE3
:1019F000C44691E7708801280FD0002850D1039A7F
:101A0000CE46A2F1200189B2452922D8AEF1BC010F
:101A100089B22D291DD202213EE0039BA9F261115A
:101A2000A3F1750292B2982A02D88AB2342A1AD344
:101A3000A3F2AF1292B2912A02D88AB2342A1ED3EC
:101A4000A3F26D2292B2802A2AD889B2392922D9EA
:101A500026E0A2F2251189B2482906D8AEF1C201CA
:101A600089B22D2901D2032116E0A2F11F0189B20A
:101A7000A12906D8AEF5A57189B2332901D2042176
:101A80000AE0A2F1D20189B2AB290ED8AEF24F1111
:101A900089B22E2909D2052189B20122FFF728FE39
:101AA0000FF2A00C0DF1140936E7A2F2A711AEF166
:101AB000AC0C89B2442905D81FFA8CF3332B01D220
:101AC0000621E9E7A2F52A739BB24A2B05D81FFA33
:101AD0008CF2332A01D20721DEE7432906D8AEF281
:101AE000011292B2302A01D20821D5E7039AA2F25C
:101AF000AA2292B2472A06D8AEF5827292B22F2A53
:101B000001D20921C8E7AEF24B12932904D891B251
:101B1000322901D20A21BFE70399A1F2592189B2E2
:101B20009A29BDD891B23129BAD80B21B4E762B64F
:101B30000FB0BDE8F08F00BF54000020A0020020CD
:101B4000F40000204634444247205420502575209C
:101B500045257520582575205925750D0A0000006A
:101B600010B588480068016811F0200F12D0DFF826
:101B7000DCE0D0F804C0BEF80420BEF80630013224
:101B8000D2B29A4206D0BEF80430054C04F803C025
:101B9000AEF80420090718BF406810BDAC00002053
:101BA000A002002010B58AB007486C4607A2282181
:101BB0008368204600F0B8FA2046FFF709F800F0E5
:101BC0008FF80AB010BD00BF00000020463420543A
:101BD000325F4652455120256C750D0A0000000009
:101BE00010B58EB0084802AC08A23021C3688088C6
:101BF0000090204600F098FA2046FEF7E9FF00F03A
:101C00007FF80EB010BD00BF000000204634205405
:101C1000345F504152414D20256C752025750D0AC9
:101C200000000000B0B588B0044600F0B7F80748DF
:101C30006D4607A2202123464480284600F074FA0E
:101C40002846FEF7C5FF08B0B0BD00BF5400002015
:101C500046344442472050414745205025750D0ADF
:101C60000000000070B592B015460E46044682B1E1
:101C7000204631462A4600F0A9F8CDE9006502ADBC
:101C800005A240212346284600F04EFA2846FEF7DA
:101C90009FFF12B070BD00BF4634444247205458E5
:101CA000205025752043257520563D25730D0A00CB
:101CB00080B500F015F800F023F806A201200121FC
:101CC000FFF7D0FF05A201200221BDE88040FFF709
:101CD000C9BF00BF554E4B4E4F574E00300000005D
:101CE0001FB51948194A6C4610218368204600F038
:101CF0001BFA002001212246FFF7B4FF1FBD00BFE1
:101D0000B0B586B0104D02AC104A10212046EB68E9
:101D100000F00AFA00200C212246FFF7A3FFA88852
:101D20000A210BA2B0FBF1F303EB8301A0EB41000E
:101D300010210090204600F0F7F900200D212246E6
:101D4000FFF790FF06B0B0BD000000202825000876
:101D500025752E25750000001CB50A4C8DF807006E
:101D60000DF1070101220A232046FFF70BFC206832
:101D7000016811F0800FFBD0016811F0400FFBD01B
:101D80001CBD00BFAC00002010B5044602E0FFF708
:101D9000E3FF013420780028F9D110BDB0B51C4D07
:101DA0000446EE20A847B120A8470020A847200AF3
:101DB000A847E0B2A847FF20A847FC20A847FF207B
:101DC000A847FF202946BDE8B0400847F8B5104FA6
:101DD0000646EE2014460D46B847B120B8471020FD
:101DE000B847300AB847F0B2B847280AB847E8B24F
:101DF000B8472046FFF7C8FFFF20B847FC20B84788
:101E0000FF20B847FF203946BDE8F840084700BF2B
:101E1000591D0008FEF7D0BF70B592B006AC142172
:101E2000201DFEF717FA01A81421FEF713FA00256A
:101E30001E4802260095016841F08051016000684B
:101E400000F080500090009800951948016841F416
:101E500040410160006800F440400090009801207B
:101E60000990102006960A900820CDE90C650E9086
:101E7000A820CDE90F06042011902046FFF716F99F
:101E800008B172B6FEE70F200296052101904FF4CB
:101E9000A050039504904FF48050059001A8FFF7DF
:101EA00025F808B172B6FEE712B070BD40380240A6
:101EB000007000400248016841F470010160704701
:101EC00088ED00E0016851E8031F026821F4907179
:101ED00042E80313002BF5D1016851E8051F0268A1
:101EE00021F0010142E80513002BF5D1016B012916
:101EF00009D1016851E8031F026821F0100142E88E
:101F00000313002BF5D1202180F84210002101633A
:101F100070470000B0B50446006849F20C650169DD
:101F2000E26821F4405111430161D4F808C0D4E9BA
:101F30000423D4F81CE0C16842EA0C02A9431A4306
:101F400042EA0E021143C1604169A26921F4407165
:101F500011434161214940F48060884202D1FFF77A
:101F600067F801E0FFF75AF8E26919216368A0FBFE
:101F70000101B2F5004F16D15A00DB0FFEF732F91E
:101F800064216FF06303B0FBF1F202FB0300322324
:101F900003EBC000B0FBF1F14FF4F87000EA410030
:101FA00001F0070113E09A009B0FFEF71BF9642173
:101FB0006FF06303B0FBF1F202FB0300322303EB8B
:101FC0000010B0FBF1F101F0F00001F00F0100EBA7
:101FD0000210084321688860B0BD00BF00140140B2
:101FE0002DE9FC41044600681D4690460F465E1CE4
:101FF00001683940B94226D0002EF9D0FEF7D8FE4C
:1020000003210DB3A0EB0800A8421DD82068C168C9
:1020100011F0040FECD0402F18BF802FE8D00168DA
:1020200011F0080FE4D00025019501680191406886
:10203000019001982046FFF745FF0121082084F810
:102040004050606400E00021C8B202B0BDE8F081F9
:10205000FEF79ABDFFF784BDFEE7000010B5074C00
:1020600000F00F03044AB0F1FF3F2344C8BF8318B8
:102070000801187010BD00BF00E400E014ED00E09E
:1020800070B5FEF79FFEFFF7C7FEFFF7D7FAFFF721
:102090000FFBFFF7EFFAFEF77DFCFFF701FC204C8A
:1020A0002046FEF795FD4FF4FA60FEF7A1FD0020F3
:1020B0000026FFF7B7FD3220FEF79AFDFFF7F8FD87
:1020C000FEF776FE174D6860FEF772FEA8602E7070
:1020D000FFF700FCFEF770FCFEF76AFE6968401A25
:1020E000B0F57A7F05D32046FEF772FDFEF760FE5D
:1020F000686028780228EBD8FEF75AFEA968401AD3
:10210000B0F57A7FE4D30020FFF78CFDFFF7D0FD18
:10211000287801302870FEF74BFEA860D8E700BF92
:1021200036250008480000200FB41CB502460020E8
:1021300007AC00290BD0491ECDE90021054B6A46AA
:102140002146069800F018F8009A002111701CBC76
:102150005DF814FBBB24000802E008C8121F08C188
:10216000002AFAD170477047002001E001C1121F18
:10217000002AFBD1704700002DE9FF4F8BB0884645
:102180000546002606E025280BD0DDE90D12904714
:102190006D1C761C28780028F5D10FB03046BDE8BC
:1021A000F08F0024A146A2460122AE4900E004437C
:1021B00015F8013F203B02FA03F00842F7D12878D6
:1021C0002A2810D06FF02F022878A0F130010929B9
:1021D00015D809EB890102EB410144F0020400EB40
:1021E00001096D1CF0E758F8041B5FEA010903D5EB
:1021F00044F40054C9F1000944F002046D1C28782D
:102200002E2817D115F8010F44F004042A280ED007
:102210006FF02F022878A0F1300109290AD80AEBC3
:102220008A0102EB410100EB010A6D1CF2E758F84C
:1022300004AB6D1C28786C280FD006DC4C2817D016
:1022400068280DD06A2814D104E0742810D07A28A8
:102250000FD10DE044F400140AE044F4801401E0CE
:1022600044F440146978814202D104F580146D1C55
:102270006D1C2878692865D006DC00288DD063287D
:1022800027D0642806D15DE06E2808D073282AD0B4
:10229000752877D0DDE90D129047761CE0E0C4F395
:1022A0000250022809D003280DD0D8F800100428C5
:1022B0000DD00E6008F10408D2E0D8F80010F21733
:1022C000C1E90062F6E7D8F800100E80F2E70E7060
:1022D000F0E718F8041B8DF8001000208DF80100BD
:1022E000EB46012003E058F804BB4FF0FF306107D4
:1022F0004FF0000701D40AE07F1C57450DDA8742F2
:10230000FADB1BF807100029F6D106E07F1C874294
:10231000FCDB1BF807100029F8D1DDE90D23A9EB40
:1023200007008146214600F0B1F83044C61904E0A8
:10233000DDE90D121BF8010B90477F1EF8D22146F4
:10234000484688E058F8040BC4F302514FF00A0BDA
:10235000032900D100B2042900D140B2002802DADA
:1023600040422D2102E0210505D52B218DF82410B6
:10237000012104E006E0E10710D02021F6E708AFD4
:10238000089113E058F8040BC4F302514FF00A0B04
:10239000032900D180B2042900D1C0B20021EEE7A8
:1023A0005946FEF7B9F8303107F8011D0028F7D17A
:1023B000ADEB070000F1200B600702D524F4803458
:1023C00001E04FF0010ADA4502DDAAEB0B0000E064
:1023D0000020824600EB0B0108980144A9EB0100A4
:1023E0000A90E00306D4DDE90D2321460A9800F0A7
:1023F0004DF806444FF0000908E009A911F809005A
:10240000DDE90D12904709F10109761C089989450B
:10241000F3DBE0030CD5DDE90D2321460A9800F03B
:1024200035F8064404E0DDE90D1230209047761CB3
:10243000BAF10001AAF1010AF5DC05E0DDE90D12AF
:1024400017F8010B9047761CBBF10001ABF1010BB3
:10245000F4DC0A982146DDE90D2300F005F8064476
:102460006D1C97E6092801002DE9F041044600257E
:102470001E461746880404D405E039462020B0479C
:102480006D1C641EF9D52846BDE8F0812DE9F041A8
:10249000044600251E469046C80301D5302700E0BB
:1024A0002027880404D505E041463846B0476D1C16
:1024B000641EF9D52846BDE8F0814A68002A06D096
:1024C0000A68531C0B6010704868401E48607047D3
:1024D000DDDDDDDDDCBBBBDDDDDDDDDDDDDDDDDD71
:1024E00098888888888888887777777777888888B1
:1024F0008555555666666666666666666668888849
:102500008333333222222222222222222228888D41
:102510000000000000000000010203040607080993
:102520000000000001020304256C750046342053AE
:10253000544F500D0A0050494E470D0A000000004C
:10254000602500080000002020000000582100083D
:102550008025000820000020800700006821000876
:10256000FFFFFFFF11000000E8030000E803000088
:102570000100000010000000000000000024F40032
:04000005080001AD41
:00000001FF
